{
  "_format": "hh-sol-artifact-1",
  "contractName": "CharityDonation",
  "sourceName": "contracts/Charity.sol",
  "abi": [
    {
      "inputs": [],
      "stateMutability": "nonpayable",
      "type": "constructor"
    },
    {
      "anonymous": false,
      "inputs": [
        {
          "indexed": true,
          "internalType": "uint256",
          "name": "charityId",
          "type": "uint256"
        },
        {
          "indexed": true,
          "internalType": "address",
          "name": "receiver",
          "type": "address"
        },
        {
          "indexed": false,
          "internalType": "uint256",
          "name": "maxAmount",
          "type": "uint256"
        }
      ],
      "name": "CharityCreated",
      "type": "event"
    },
    {
      "anonymous": false,
      "inputs": [
        {
          "indexed": true,
          "internalType": "uint256",
          "name": "charityId",
          "type": "uint256"
        },
        {
          "indexed": true,
          "internalType": "address",
          "name": "donor",
          "type": "address"
        },
        {
          "indexed": false,
          "internalType": "uint256",
          "name": "amount",
          "type": "uint256"
        }
      ],
      "name": "DonationReceived",
      "type": "event"
    },
    {
      "anonymous": false,
      "inputs": [
        {
          "indexed": true,
          "internalType": "uint256",
          "name": "charityId",
          "type": "uint256"
        },
        {
          "indexed": false,
          "internalType": "uint256",
          "name": "amount",
          "type": "uint256"
        }
      ],
      "name": "FundsWithdrawn",
      "type": "event"
    },
    {
      "inputs": [],
      "name": "admin",
      "outputs": [
        {
          "internalType": "address",
          "name": "",
          "type": "address"
        }
      ],
      "stateMutability": "view",
      "type": "function"
    },
    {
      "inputs": [],
      "name": "charityCount",
      "outputs": [
        {
          "internalType": "uint256",
          "name": "",
          "type": "uint256"
        }
      ],
      "stateMutability": "view",
      "type": "function"
    },
    {
      "inputs": [
        {
          "internalType": "uint256",
          "name": "",
          "type": "uint256"
        },
        {
          "internalType": "uint256",
          "name": "",
          "type": "uint256"
        }
      ],
      "name": "charityDonations",
      "outputs": [
        {
          "internalType": "address",
          "name": "donor",
          "type": "address"
        },
        {
          "internalType": "uint256",
          "name": "amount",
          "type": "uint256"
        },
        {
          "internalType": "uint256",
          "name": "timestamp",
          "type": "uint256"
        }
      ],
      "stateMutability": "view",
      "type": "function"
    },
    {
      "inputs": [
        {
          "internalType": "uint256",
          "name": "",
          "type": "uint256"
        }
      ],
      "name": "charityRequests",
      "outputs": [
        {
          "internalType": "uint256",
          "name": "id",
          "type": "uint256"
        },
        {
          "internalType": "address",
          "name": "receiver",
          "type": "address"
        },
        {
          "internalType": "uint256",
          "name": "maxAmount",
          "type": "uint256"
        },
        {
          "internalType": "uint256",
          "name": "collected",
          "type": "uint256"
        },
        {
          "internalType": "uint256",
          "name": "balance",
          "type": "uint256"
        },
        {
          "internalType": "bool",
          "name": "status",
          "type": "bool"
        }
      ],
      "stateMutability": "view",
      "type": "function"
    },
    {
      "inputs": [
        {
          "internalType": "uint256",
          "name": "_charityId",
          "type": "uint256"
        },
        {
          "internalType": "address",
          "name": "_receiver",
          "type": "address"
        },
        {
          "internalType": "uint256",
          "name": "_maxAmount",
          "type": "uint256"
        }
      ],
      "name": "createCharityRequest",
      "outputs": [],
      "stateMutability": "nonpayable",
      "type": "function"
    },
    {
      "inputs": [
        {
          "internalType": "uint256",
          "name": "_charityId",
          "type": "uint256"
        },
        {
          "internalType": "uint256",
          "name": "_amount",
          "type": "uint256"
        }
      ],
      "name": "donate",
      "outputs": [],
      "stateMutability": "payable",
      "type": "function"
    },
    {
      "inputs": [
        {
          "internalType": "uint256",
          "name": "_charityId",
          "type": "uint256"
        }
      ],
      "name": "getContractBalance",
      "outputs": [
        {
          "internalType": "uint256",
          "name": "",
          "type": "uint256"
        }
      ],
      "stateMutability": "view",
      "type": "function"
    },
    {
      "inputs": [
        {
          "internalType": "uint256",
          "name": "_charityId",
          "type": "uint256"
        }
      ],
      "name": "getDonations",
      "outputs": [
        {
          "components": [
            {
              "internalType": "address",
              "name": "donor",
              "type": "address"
            },
            {
              "internalType": "uint256",
              "name": "amount",
              "type": "uint256"
            },
            {
              "internalType": "uint256",
              "name": "timestamp",
              "type": "uint256"
            }
          ],
          "internalType": "struct CharityDonation.Donation[]",
          "name": "",
          "type": "tuple[]"
        }
      ],
      "stateMutability": "view",
      "type": "function"
    },
    {
      "inputs": [
        {
          "internalType": "uint256",
          "name": "_charityId",
          "type": "uint256"
        },
        {
          "internalType": "uint256",
          "name": "_amount",
          "type": "uint256"
        }
      ],
      "name": "withdraw",
      "outputs": [],
      "stateMutability": "payable",
      "type": "function"
    }
  ],
  "bytecode": "0x6080604052348015600f57600080fd5b50336000806101000a81548173ffffffffffffffffffffffffffffffffffffffff021916908373ffffffffffffffffffffffffffffffffffffffff160217905550611a8f8061005f6000396000f3fe6080604052600436106100865760003560e01c80635cbbb574116100595780635cbbb5741461013d5780635effffa91461017c57806391329493146101be578063f851a440146101e9578063ffded55d1461021457610086565b806305d630701461008b5780630cdd53f6146100c8578063441a3e70146100e4578063596d9ce214610100575b600080fd5b34801561009757600080fd5b506100b260048036038101906100ad9190610f47565b61023d565b6040516100bf9190610f83565b60405180910390f35b6100e260048036038101906100dd9190610f9e565b6103bf565b005b6100fe60048036038101906100f99190610f9e565b61067a565b005b34801561010c57600080fd5b5061012760048036038101906101229190610f47565b610950565b604051610134919061111f565b60405180910390f35b34801561014957600080fd5b50610164600480360381019061015f9190610f9e565b610b20565b60405161017393929190611150565b60405180910390f35b34801561018857600080fd5b506101a3600480360381019061019e9190610f47565b610b87565b6040516101b5969594939291906111a2565b60405180910390f35b3480156101ca57600080fd5b506101d3610bf0565b6040516101e09190610f83565b60405180910390f35b3480156101f557600080fd5b506101fe610bf6565b60405161020b9190611203565b60405180910390f35b34801561022057600080fd5b5061023b6004803603810190610236919061124a565b610c1a565b005b60008160008054906101000a900473ffffffffffffffffffffffffffffffffffffffff1673ffffffffffffffffffffffffffffffffffffffff163373ffffffffffffffffffffffffffffffffffffffff1614806102fb57506001600082815260200190815260200160002060010160009054906101000a900473ffffffffffffffffffffffffffffffffffffffff1673ffffffffffffffffffffffffffffffffffffffff163373ffffffffffffffffffffffffffffffffffffffff16145b61033a576040517f08c379a000000000000000000000000000000000000000000000000000000000815260040161033190611320565b60405180910390fd5b60008311801561036157506000600160008581526020019081526020016000206000015414155b6103a0576040517f08c379a00000000000000000000000000000000000000000000000000000000081526004016103979061138c565b60405180910390fd5b6001600084815260200190815260200160002060040154915050919050565b6000821180156103e657506000600160008481526020019081526020016000206000015414155b610425576040517f08c379a000000000000000000000000000000000000000000000000000000000815260040161041c9061138c565b60405180910390fd5b60006001600084815260200190815260200160002090508060050160009054906101000a900460ff1661048d576040517f08c379a0000000000000000000000000000000000000000000000000000000008152600401610484906113f8565b60405180910390fd5b600082116104d0576040517f08c379a00000000000000000000000000000000000000000000000000000000081526004016104c79061148a565b60405180910390fd5b80600201548282600301546104e591906114d9565b1115610526576040517f08c379a000000000000000000000000000000000000000000000000000000000815260040161051d9061157f565b60405180910390fd5b8181600301600082825461053a91906114d9565b925050819055508181600401600082825461055591906114d9565b925050819055506002600084815260200190815260200160002060405180606001604052803373ffffffffffffffffffffffffffffffffffffffff16815260200184815260200142815250908060018154018082558091505060019003906000526020600020906003020160009091909190915060008201518160000160006101000a81548173ffffffffffffffffffffffffffffffffffffffff021916908373ffffffffffffffffffffffffffffffffffffffff160217905550602082015181600101556040820151816002015550503373ffffffffffffffffffffffffffffffffffffffff16837f0b5b4c52969ff7329ecf7ee536409fda87812b15a8622bc6e8cdeab3aee14a268460405161066d9190610f83565b60405180910390a3505050565b816001600082815260200190815260200160002060010160009054906101000a900473ffffffffffffffffffffffffffffffffffffffff1673ffffffffffffffffffffffffffffffffffffffff163373ffffffffffffffffffffffffffffffffffffffff161461071f576040517f08c379a000000000000000000000000000000000000000000000000000000000815260040161071690611611565b60405180910390fd5b60008311801561074657506000600160008581526020019081526020016000206000015414155b610785576040517f08c379a000000000000000000000000000000000000000000000000000000000815260040161077c9061138c565b60405180910390fd5b6000600160008581526020019081526020016000209050600083116107df576040517f08c379a00000000000000000000000000000000000000000000000000000000081526004016107d6906116a3565b60405180910390fd5b8060040154831115610826576040517f08c379a000000000000000000000000000000000000000000000000000000000815260040161081d9061170f565b60405180910390fd5b8281600401600082825461083a919061172f565b9250508190555060008160010160009054906101000a900473ffffffffffffffffffffffffffffffffffffffff1673ffffffffffffffffffffffffffffffffffffffff168460405161088b90611794565b60006040518083038185875af1925050503d80600081146108c8576040519150601f19603f3d011682016040523d82523d6000602084013e6108cd565b606091505b5050905080610911576040517f08c379a0000000000000000000000000000000000000000000000000000000008152600401610908906117f5565b60405180910390fd5b847fd66662c0ded9e58fd31d5e44944bcfd07ffc15e6927ecc1382e7941cb7bd24c4856040516109419190610f83565b60405180910390a25050505050565b606060008054906101000a900473ffffffffffffffffffffffffffffffffffffffff1673ffffffffffffffffffffffffffffffffffffffff163373ffffffffffffffffffffffffffffffffffffffff16146109e0576040517f08c379a00000000000000000000000000000000000000000000000000000000081526004016109d790611887565b60405180910390fd5b600082118015610a0757506000600160008481526020019081526020016000206000015414155b610a46576040517f08c379a0000000000000000000000000000000000000000000000000000000008152600401610a3d9061138c565b60405180910390fd5b60026000838152602001908152602001600020805480602002602001604051908101604052809291908181526020016000905b82821015610b1557838290600052602060002090600302016040518060600160405290816000820160009054906101000a900473ffffffffffffffffffffffffffffffffffffffff1673ffffffffffffffffffffffffffffffffffffffff1673ffffffffffffffffffffffffffffffffffffffff1681526020016001820154815260200160028201548152505081526020019060010190610a79565b505050509050919050565b60026020528160005260406000208181548110610b3c57600080fd5b9060005260206000209060030201600091509150508060000160009054906101000a900473ffffffffffffffffffffffffffffffffffffffff16908060010154908060020154905083565b60016020528060005260406000206000915090508060000154908060010160009054906101000a900473ffffffffffffffffffffffffffffffffffffffff16908060020154908060030154908060040154908060050160009054906101000a900460ff16905086565b60035481565b60008054906101000a900473ffffffffffffffffffffffffffffffffffffffff1681565b60008054906101000a900473ffffffffffffffffffffffffffffffffffffffff1673ffffffffffffffffffffffffffffffffffffffff163373ffffffffffffffffffffffffffffffffffffffff1614610ca8576040517f08c379a0000000000000000000000000000000000000000000000000000000008152600401610c9f90611887565b60405180910390fd5b600073ffffffffffffffffffffffffffffffffffffffff168273ffffffffffffffffffffffffffffffffffffffff1603610d17576040517f08c379a0000000000000000000000000000000000000000000000000000000008152600401610d0e906118f3565b60405180910390fd5b60008111610d5a576040517f08c379a0000000000000000000000000000000000000000000000000000000008152600401610d5190611985565b60405180910390fd5b6000600160008581526020019081526020016000206000015414610db3576040517f08c379a0000000000000000000000000000000000000000000000000000000008152600401610daa906119f1565b60405180910390fd5b60036000815480929190610dc690611a11565b91905055506040518060c001604052808481526020018373ffffffffffffffffffffffffffffffffffffffff168152602001828152602001600081526020016000815260200160011515815250600160008581526020019081526020016000206000820151816000015560208201518160010160006101000a81548173ffffffffffffffffffffffffffffffffffffffff021916908373ffffffffffffffffffffffffffffffffffffffff16021790555060408201518160020155606082015181600301556080820151816004015560a08201518160050160006101000a81548160ff0219169083151502179055509050508173ffffffffffffffffffffffffffffffffffffffff16837f23cfba9a727e6db64da9ef036aa94852b70708eea64c7fe06f7dfd629404fc4f83604051610eff9190610f83565b60405180910390a3505050565b600080fd5b6000819050919050565b610f2481610f11565b8114610f2f57600080fd5b50565b600081359050610f4181610f1b565b92915050565b600060208284031215610f5d57610f5c610f0c565b5b6000610f6b84828501610f32565b91505092915050565b610f7d81610f11565b82525050565b6000602082019050610f986000830184610f74565b92915050565b60008060408385031215610fb557610fb4610f0c565b5b6000610fc385828601610f32565b9250506020610fd485828601610f32565b9150509250929050565b600081519050919050565b600082825260208201905092915050565b6000819050602082019050919050565b600073ffffffffffffffffffffffffffffffffffffffff82169050919050565b60006110358261100a565b9050919050565b6110458161102a565b82525050565b61105481610f11565b82525050565b606082016000820151611070600085018261103c565b506020820151611083602085018261104b565b506040820151611096604085018261104b565b50505050565b60006110a8838361105a565b60608301905092915050565b6000602082019050919050565b60006110cc82610fde565b6110d68185610fe9565b93506110e183610ffa565b8060005b838110156111125781516110f9888261109c565b9750611104836110b4565b9250506001810190506110e5565b5085935050505092915050565b6000602082019050818103600083015261113981846110c1565b905092915050565b61114a8161102a565b82525050565b60006060820190506111656000830186611141565b6111726020830185610f74565b61117f6040830184610f74565b949350505050565b60008115159050919050565b61119c81611187565b82525050565b600060c0820190506111b76000830189610f74565b6111c46020830188611141565b6111d16040830187610f74565b6111de6060830186610f74565b6111eb6080830185610f74565b6111f860a0830184611193565b979650505050505050565b60006020820190506112186000830184611141565b92915050565b6112278161102a565b811461123257600080fd5b50565b6000813590506112448161121e565b92915050565b60008060006060848603121561126357611262610f0c565b5b600061127186828701610f32565b935050602061128286828701611235565b925050604061129386828701610f32565b9150509250925092565b600082825260208201905092915050565b7f4f6e6c79207468652061646d696e206f72207468652061737369676e6564207260008201527f656365697665722063616e20706572666f726d207468697320616374696f6e2e602082015250565b600061130a60408361129d565b9150611315826112ae565b604082019050919050565b60006020820190508181036000830152611339816112fd565b9050919050565b7f496e76616c696420636861726974792049442e00000000000000000000000000600082015250565b600061137660138361129d565b915061138182611340565b602082019050919050565b600060208201905081810360008301526113a581611369565b9050919050565b7f436861726974792072657175657374206973206e6f74206163746976652e0000600082015250565b60006113e2601e8361129d565b91506113ed826113ac565b602082019050919050565b60006020820190508181036000830152611411816113d5565b9050919050565b7f446f6e6174696f6e20616d6f756e74206d75737420626520677265617465722060008201527f7468616e207a65726f2e00000000000000000000000000000000000000000000602082015250565b6000611474602a8361129d565b915061147f82611418565b604082019050919050565b600060208201905081810360008301526114a381611467565b9050919050565b7f4e487b7100000000000000000000000000000000000000000000000000000000600052601160045260246000fd5b60006114e482610f11565b91506114ef83610f11565b9250828201905080821115611507576115066114aa565b5b92915050565b7f446f6e6174696f6e206578636565647320726571756972656420616d6f756e7460008201527f2e00000000000000000000000000000000000000000000000000000000000000602082015250565b600061156960218361129d565b91506115748261150d565b604082019050919050565b600060208201905081810360008301526115988161155c565b9050919050565b7f4f6e6c79207468652061737369676e65642072656365697665722063616e207060008201527f6572666f726d207468697320616374696f6e2e00000000000000000000000000602082015250565b60006115fb60338361129d565b91506116068261159f565b604082019050919050565b6000602082019050818103600083015261162a816115ee565b9050919050565b7f5769746864726177616c20616d6f756e74206d7573742062652067726561746560008201527f72207468616e207a65726f2e0000000000000000000000000000000000000000602082015250565b600061168d602c8361129d565b915061169882611631565b604082019050919050565b600060208201905081810360008301526116bc81611680565b9050919050565b7f496e73756666696369656e742062616c616e63652e0000000000000000000000600082015250565b60006116f960158361129d565b9150611704826116c3565b602082019050919050565b60006020820190508181036000830152611728816116ec565b9050919050565b600061173a82610f11565b915061174583610f11565b925082820390508181111561175d5761175c6114aa565b5b92915050565b600081905092915050565b50565b600061177e600083611763565b91506117898261176e565b600082019050919050565b600061179f82611771565b9150819050919050565b7f5769746864726177616c206661696c65642e0000000000000000000000000000600082015250565b60006117df60128361129d565b91506117ea826117a9565b602082019050919050565b6000602082019050818103600083015261180e816117d2565b9050919050565b7f4f6e6c79207468652061646d696e2063616e20706572666f726d20746869732060008201527f616374696f6e2e00000000000000000000000000000000000000000000000000602082015250565b600061187160278361129d565b915061187c82611815565b604082019050919050565b600060208201905081810360008301526118a081611864565b9050919050565b7f526563656976657220616464726573732063616e6e6f74206265207a65726f2e600082015250565b60006118dd60208361129d565b91506118e8826118a7565b602082019050919050565b6000602082019050818103600083015261190c816118d0565b9050919050565b7f4d6178696d756d20616d6f756e74206d7573742062652067726561746572207460008201527f68616e207a65726f2e0000000000000000000000000000000000000000000000602082015250565b600061196f60298361129d565b915061197a82611913565b604082019050919050565b6000602082019050818103600083015261199e81611962565b9050919050565b7f4368617269747920494420616c7265616479206578697374732e000000000000600082015250565b60006119db601a8361129d565b91506119e6826119a5565b602082019050919050565b60006020820190508181036000830152611a0a816119ce565b9050919050565b6000611a1c82610f11565b91507fffffffffffffffffffffffffffffffffffffffffffffffffffffffffffffffff8203611a4e57611a4d6114aa565b5b60018201905091905056fea2646970667358221220b9566058e41679a52be843461c98a9dc7805163d7e2d1cafde60f38b736a4e0464736f6c634300081a0033",
  "linkReferences": {},
  "deployedLinkReferences": {}
}