{
  "_format": "hh-sol-artifact-1",
  "contractName": "Lock",
  "sourceName": "contracts/scholarship.sol",
  "abi": [
    {
      "anonymous": false,
      "inputs": [
        {
          "indexed": true,
          "internalType": "address",
          "name": "applicant",
          "type": "address"
        },
        {
          "indexed": false,
          "internalType": "string",
          "name": "name",
          "type": "string"
        },
        {
          "indexed": false,
          "internalType": "string",
          "name": "personalEmail",
          "type": "string"
        },
        {
          "indexed": false,
          "internalType": "string",
          "name": "proofIpfsHash",
          "type": "string"
        }
      ],
      "name": "ApplicantRegistered",
      "type": "event"
    },
    {
      "anonymous": false,
      "inputs": [
        {
          "indexed": true,
          "internalType": "address",
          "name": "sponsor",
          "type": "address"
        },
        {
          "indexed": true,
          "internalType": "address",
          "name": "applicant",
          "type": "address"
        },
        {
          "indexed": false,
          "internalType": "uint256",
          "name": "amount",
          "type": "uint256"
        }
      ],
      "name": "DonationMade",
      "type": "event"
    },
    {
      "anonymous": false,
      "inputs": [
        {
          "indexed": true,
          "internalType": "address",
          "name": "applicant",
          "type": "address"
        },
        {
          "indexed": false,
          "internalType": "string",
          "name": "message",
          "type": "string"
        }
      ],
      "name": "HelpRequested",
      "type": "event"
    },
    {
      "anonymous": false,
      "inputs": [
        {
          "indexed": true,
          "internalType": "address",
          "name": "sponsor",
          "type": "address"
        },
        {
          "indexed": false,
          "internalType": "string",
          "name": "name",
          "type": "string"
        },
        {
          "indexed": false,
          "internalType": "string",
          "name": "email",
          "type": "string"
        },
        {
          "indexed": false,
          "internalType": "string",
          "name": "uniqueId",
          "type": "string"
        }
      ],
      "name": "SponsorRegistered",
      "type": "event"
    },
    {
      "anonymous": false,
      "inputs": [
        {
          "indexed": true,
          "internalType": "address",
          "name": "applicant",
          "type": "address"
        },
        {
          "indexed": false,
          "internalType": "uint256",
          "name": "amount",
          "type": "uint256"
        }
      ],
      "name": "Withdrawal",
      "type": "event"
    },
    {
      "inputs": [
        {
          "internalType": "uint256",
          "name": "",
          "type": "uint256"
        }
      ],
      "name": "applicantList",
      "outputs": [
        {
          "internalType": "string",
          "name": "name",
          "type": "string"
        },
        {
          "internalType": "string",
          "name": "personalEmail",
          "type": "string"
        },
        {
          "internalType": "bool",
          "name": "exists",
          "type": "bool"
        },
        {
          "internalType": "uint256",
          "name": "fundsReceived",
          "type": "uint256"
        },
        {
          "internalType": "string",
          "name": "proofIpfsHash",
          "type": "string"
        },
        {
          "internalType": "string",
          "name": "username",
          "type": "string"
        },
        {
          "internalType": "string",
          "name": "password",
          "type": "string"
        }
      ],
      "stateMutability": "view",
      "type": "function"
    },
    {
      "inputs": [
        {
          "internalType": "string",
          "name": "_username",
          "type": "string"
        },
        {
          "internalType": "string",
          "name": "_password",
          "type": "string"
        }
      ],
      "name": "applicantLogin",
      "outputs": [
        {
          "internalType": "bool",
          "name": "",
          "type": "bool"
        }
      ],
      "stateMutability": "view",
      "type": "function"
    },
    {
      "inputs": [
        {
          "internalType": "address",
          "name": "",
          "type": "address"
        }
      ],
      "name": "applicants",
      "outputs": [
        {
          "internalType": "string",
          "name": "name",
          "type": "string"
        },
        {
          "internalType": "string",
          "name": "personalEmail",
          "type": "string"
        },
        {
          "internalType": "bool",
          "name": "exists",
          "type": "bool"
        },
        {
          "internalType": "uint256",
          "name": "fundsReceived",
          "type": "uint256"
        },
        {
          "internalType": "string",
          "name": "proofIpfsHash",
          "type": "string"
        },
        {
          "internalType": "string",
          "name": "username",
          "type": "string"
        },
        {
          "internalType": "string",
          "name": "password",
          "type": "string"
        }
      ],
      "stateMutability": "view",
      "type": "function"
    },
    {
      "inputs": [
        {
          "internalType": "address",
          "name": "_applicant",
          "type": "address"
        }
      ],
      "name": "donate",
      "outputs": [],
      "stateMutability": "payable",
      "type": "function"
    },
    {
      "inputs": [],
      "name": "getAllApplicants",
      "outputs": [
        {
          "components": [
            {
              "internalType": "string",
              "name": "name",
              "type": "string"
            },
            {
              "internalType": "string",
              "name": "personalEmail",
              "type": "string"
            },
            {
              "internalType": "bool",
              "name": "exists",
              "type": "bool"
            },
            {
              "internalType": "uint256",
              "name": "fundsReceived",
              "type": "uint256"
            },
            {
              "internalType": "string",
              "name": "proofIpfsHash",
              "type": "string"
            },
            {
              "internalType": "string",
              "name": "username",
              "type": "string"
            },
            {
              "internalType": "string",
              "name": "password",
              "type": "string"
            }
          ],
          "internalType": "struct Lock.Applicant[]",
          "name": "",
          "type": "tuple[]"
        }
      ],
      "stateMutability": "view",
      "type": "function"
    },
    {
      "inputs": [],
      "name": "getAllSponsors",
      "outputs": [
        {
          "components": [
            {
              "internalType": "string",
              "name": "name",
              "type": "string"
            },
            {
              "internalType": "string",
              "name": "email",
              "type": "string"
            },
            {
              "internalType": "string",
              "name": "uniqueId",
              "type": "string"
            },
            {
              "internalType": "bool",
              "name": "exists",
              "type": "bool"
            },
            {
              "internalType": "string",
              "name": "password",
              "type": "string"
            }
          ],
          "internalType": "struct Lock.Sponsor[]",
          "name": "",
          "type": "tuple[]"
        }
      ],
      "stateMutability": "view",
      "type": "function"
    },
    {
      "inputs": [
        {
          "internalType": "address",
          "name": "_applicant",
          "type": "address"
        }
      ],
      "name": "getApplicantDetails",
      "outputs": [
        {
          "internalType": "string",
          "name": "",
          "type": "string"
        },
        {
          "internalType": "string",
          "name": "",
          "type": "string"
        },
        {
          "internalType": "uint256",
          "name": "",
          "type": "uint256"
        },
        {
          "internalType": "string",
          "name": "",
          "type": "string"
        }
      ],
      "stateMutability": "view",
      "type": "function"
    },
    {
      "inputs": [
        {
          "internalType": "address",
          "name": "_sponsor",
          "type": "address"
        }
      ],
      "name": "getSponsorDetails",
      "outputs": [
        {
          "internalType": "string",
          "name": "",
          "type": "string"
        },
        {
          "internalType": "string",
          "name": "",
          "type": "string"
        },
        {
          "internalType": "bool",
          "name": "",
          "type": "bool"
        }
      ],
      "stateMutability": "view",
      "type": "function"
    },
    {
      "inputs": [
        {
          "internalType": "string",
          "name": "_name",
          "type": "string"
        },
        {
          "internalType": "string",
          "name": "_personalEmail",
          "type": "string"
        },
        {
          "internalType": "string",
          "name": "_proofIpfsHash",
          "type": "string"
        },
        {
          "internalType": "string",
          "name": "_username",
          "type": "string"
        },
        {
          "internalType": "string",
          "name": "_password",
          "type": "string"
        }
      ],
      "name": "registerApplicant",
      "outputs": [],
      "stateMutability": "nonpayable",
      "type": "function"
    },
    {
      "inputs": [
        {
          "internalType": "string",
          "name": "_name",
          "type": "string"
        },
        {
          "internalType": "string",
          "name": "_email",
          "type": "string"
        },
        {
          "internalType": "string",
          "name": "_password",
          "type": "string"
        }
      ],
      "name": "registerSponsor",
      "outputs": [],
      "stateMutability": "nonpayable",
      "type": "function"
    },
    {
      "inputs": [
        {
          "internalType": "string",
          "name": "message",
          "type": "string"
        }
      ],
      "name": "requestHelp",
      "outputs": [],
      "stateMutability": "nonpayable",
      "type": "function"
    },
    {
      "inputs": [
        {
          "internalType": "uint256",
          "name": "",
          "type": "uint256"
        }
      ],
      "name": "sponsorList",
      "outputs": [
        {
          "internalType": "string",
          "name": "name",
          "type": "string"
        },
        {
          "internalType": "string",
          "name": "email",
          "type": "string"
        },
        {
          "internalType": "string",
          "name": "uniqueId",
          "type": "string"
        },
        {
          "internalType": "bool",
          "name": "exists",
          "type": "bool"
        },
        {
          "internalType": "string",
          "name": "password",
          "type": "string"
        }
      ],
      "stateMutability": "view",
      "type": "function"
    },
    {
      "inputs": [
        {
          "internalType": "string",
          "name": "_password",
          "type": "string"
        }
      ],
      "name": "sponsorLogin",
      "outputs": [
        {
          "internalType": "bool",
          "name": "",
          "type": "bool"
        }
      ],
      "stateMutability": "view",
      "type": "function"
    },
    {
      "inputs": [
        {
          "internalType": "address",
          "name": "",
          "type": "address"
        }
      ],
      "name": "sponsors",
      "outputs": [
        {
          "internalType": "string",
          "name": "name",
          "type": "string"
        },
        {
          "internalType": "string",
          "name": "email",
          "type": "string"
        },
        {
          "internalType": "string",
          "name": "uniqueId",
          "type": "string"
        },
        {
          "internalType": "bool",
          "name": "exists",
          "type": "bool"
        },
        {
          "internalType": "string",
          "name": "password",
          "type": "string"
        }
      ],
      "stateMutability": "view",
      "type": "function"
    },
    {
      "inputs": [
        {
          "internalType": "string",
          "name": "",
          "type": "string"
        }
      ],
      "name": "uniqueIdToAddress",
      "outputs": [
        {
          "internalType": "address",
          "name": "",
          "type": "address"
        }
      ],
      "stateMutability": "view",
      "type": "function"
    },
    {
      "inputs": [
        {
          "internalType": "uint256",
          "name": "amount",
          "type": "uint256"
        }
      ],
      "name": "withdraw",
      "outputs": [],
      "stateMutability": "nonpayable",
      "type": "function"
    }
  ],
  "bytecode": "0x6080604052348015600f57600080fd5b50613f5a8061001f6000396000f3fe6080604052600436106100f25760003560e01c80638c468cd41161008a578063ccd6686311610059578063ccd668631461034a578063d35590c21461038d578063da4861cd146103ce578063e89bab3e1461040b576100f2565b80638c468cd4146102745780639b5f8abb146102b7578063af128402146102e2578063b0f5686614610321576100f2565b80632e1a7d4d116100c65780632e1a7d4d146101ba578063388d5399146101e35780633bdb192c1461020e578063858ae57f1461024b576100f2565b8062362a95146100f7578063018b65ef14610113578063067a6f281461015057806309034fa314610179575b600080fd5b610111600480360381019061010c91906129e7565b61044b565b005b34801561011f57600080fd5b5061013a60048036038101906101359190612b5a565b61066b565b6040516101479190612bb2565b60405180910390f35b34801561015c57600080fd5b5061017760048036038101906101729190612bcd565b6106b4565b005b34801561018557600080fd5b506101a0600480360381019061019b9190612d0a565b6109b7565b6040516101b1959493929190612dd1565b60405180910390f35b3480156101c657600080fd5b506101e160048036038101906101dc9190612d0a565b610c2a565b005b3480156101ef57600080fd5b506101f8610e1e565b6040516102059190613022565b60405180910390f35b34801561021a57600080fd5b5061023560048036038101906102309190612b5a565b61117c565b6040516102429190613044565b60405180910390f35b34801561025757600080fd5b50610272600480360381019061026d9190612b5a565b61126b565b005b34801561028057600080fd5b5061029b60048036038101906102969190612d0a565b61134a565b6040516102ae979695949392919061306e565b60405180910390f35b3480156102c357600080fd5b506102cc611651565b6040516102d9919061324d565b60405180910390f35b3480156102ee57600080fd5b50610309600480360381019061030491906129e7565b611913565b6040516103189392919061326f565b60405180910390f35b34801561032d57600080fd5b50610348600480360381019061034391906132b4565b611be5565b005b34801561035657600080fd5b50610371600480360381019061036c91906129e7565b611f09565b604051610384979695949392919061306e565b60405180910390f35b34801561039957600080fd5b506103b460048036038101906103af91906129e7565b612200565b6040516103c5959493929190612dd1565b60405180910390f35b3480156103da57600080fd5b506103f560048036038101906103f0919061335b565b612463565b6040516104029190613044565b60405180910390f35b34801561041757600080fd5b50610432600480360381019061042d91906129e7565b6125ac565b60405161044294939291906133d3565b60405180910390f35b600160003373ffffffffffffffffffffffffffffffffffffffff1673ffffffffffffffffffffffffffffffffffffffff16815260200190815260200160002060030160009054906101000a900460ff166104da576040517f08c379a00000000000000000000000000000000000000000000000000000000081526004016104d190613479565b60405180910390fd5b6000808273ffffffffffffffffffffffffffffffffffffffff1673ffffffffffffffffffffffffffffffffffffffff16815260200190815260200160002060020160009054906101000a900460ff16610568576040517f08c379a000000000000000000000000000000000000000000000000000000000815260040161055f906134e5565b60405180910390fd5b600034116105ab576040517f08c379a00000000000000000000000000000000000000000000000000000000081526004016105a290613577565b60405180910390fd5b346000808373ffffffffffffffffffffffffffffffffffffffff1673ffffffffffffffffffffffffffffffffffffffff16815260200190815260200160002060030160008282546105fc91906135c6565b925050819055508073ffffffffffffffffffffffffffffffffffffffff163373ffffffffffffffffffffffffffffffffffffffff167f70c6bc6cf53707fb5561feef795d557f7e46f57bd4f1a13ce36e9ffdf58d38bb3460405161066091906135fa565b60405180910390a350565b6002818051602081018201805184825260208301602085012081835280955050505050506000915054906101000a900473ffffffffffffffffffffffffffffffffffffffff1681565b6000803373ffffffffffffffffffffffffffffffffffffffff1673ffffffffffffffffffffffffffffffffffffffff16815260200190815260200160002060020160009054906101000a900460ff1615610743576040517f08c379a000000000000000000000000000000000000000000000000000000000815260040161073a90613661565b60405180910390fd5b6040518060e0016040528086815260200185815260200160011515815260200160008152602001848152602001838152602001828152506000803373ffffffffffffffffffffffffffffffffffffffff1673ffffffffffffffffffffffffffffffffffffffff16815260200190815260200160002060008201518160000190816107cd919061388d565b5060208201518160010190816107e3919061388d565b5060408201518160020160006101000a81548160ff021916908315150217905550606082015181600301556080820151816004019081610823919061388d565b5060a0820151816005019081610839919061388d565b5060c082015181600601908161084f919061388d565b5090505060036000803373ffffffffffffffffffffffffffffffffffffffff1673ffffffffffffffffffffffffffffffffffffffff1681526020019081526020016000209080600181540180825580915050600190039060005260206000209060070201600090919091909150600082018160000190816108d09190613975565b50600182018160010190816108e59190613975565b506002820160009054906101000a900460ff168160020160006101000a81548160ff02191690831515021790555060038201548160030155600482018160040190816109319190613975565b50600582018160050190816109469190613975565b506006820181600601908161095b9190613975565b5050503373ffffffffffffffffffffffffffffffffffffffff167fea444ffcdece98488cc0795ef51104e13259c29e8828b83f3948e3f36b4e67808686866040516109a893929190613a5d565b60405180910390a25050505050565b600481815481106109c757600080fd5b90600052602060002090600502016000915090508060000180546109ea906136b0565b80601f0160208091040260200160405190810160405280929190818152602001828054610a16906136b0565b8015610a635780601f10610a3857610100808354040283529160200191610a63565b820191906000526020600020905b815481529060010190602001808311610a4657829003601f168201915b505050505090806001018054610a78906136b0565b80601f0160208091040260200160405190810160405280929190818152602001828054610aa4906136b0565b8015610af15780601f10610ac657610100808354040283529160200191610af1565b820191906000526020600020905b815481529060010190602001808311610ad457829003601f168201915b505050505090806002018054610b06906136b0565b80601f0160208091040260200160405190810160405280929190818152602001828054610b32906136b0565b8015610b7f5780601f10610b5457610100808354040283529160200191610b7f565b820191906000526020600020905b815481529060010190602001808311610b6257829003601f168201915b5050505050908060030160009054906101000a900460ff1690806004018054610ba7906136b0565b80601f0160208091040260200160405190810160405280929190818152602001828054610bd3906136b0565b8015610c205780601f10610bf557610100808354040283529160200191610c20565b820191906000526020600020905b815481529060010190602001808311610c0357829003601f168201915b5050505050905085565b60008060003373ffffffffffffffffffffffffffffffffffffffff1673ffffffffffffffffffffffffffffffffffffffff16815260200190815260200160002090508060020160009054906101000a900460ff16610cbd576040517f08c379a0000000000000000000000000000000000000000000000000000000008152600401610cb490613af5565b60405180910390fd5b8181600301541015610d04576040517f08c379a0000000000000000000000000000000000000000000000000000000008152600401610cfb90613b61565b60405180910390fd5b81816003016000828254610d189190613b81565b9250508190555060003373ffffffffffffffffffffffffffffffffffffffff1683604051610d4590613be6565b60006040518083038185875af1925050503d8060008114610d82576040519150601f19603f3d011682016040523d82523d6000602084013e610d87565b606091505b5050905080610dcb576040517f08c379a0000000000000000000000000000000000000000000000000000000008152600401610dc290613c47565b60405180910390fd5b3373ffffffffffffffffffffffffffffffffffffffff167f7fcf532c15f0a6db0bd6d0e038bea71d30d808c7d98cb3bf7268a95bf5081b6584604051610e1191906135fa565b60405180910390a2505050565b60606003805480602002602001604051908101604052809291908181526020016000905b8282101561117357838290600052602060002090600702016040518060e0016040529081600082018054610e75906136b0565b80601f0160208091040260200160405190810160405280929190818152602001828054610ea1906136b0565b8015610eee5780601f10610ec357610100808354040283529160200191610eee565b820191906000526020600020905b815481529060010190602001808311610ed157829003601f168201915b50505050508152602001600182018054610f07906136b0565b80601f0160208091040260200160405190810160405280929190818152602001828054610f33906136b0565b8015610f805780601f10610f5557610100808354040283529160200191610f80565b820191906000526020600020905b815481529060010190602001808311610f6357829003601f168201915b505050505081526020016002820160009054906101000a900460ff1615151515815260200160038201548152602001600482018054610fbe906136b0565b80601f0160208091040260200160405190810160405280929190818152602001828054610fea906136b0565b80156110375780601f1061100c57610100808354040283529160200191611037565b820191906000526020600020905b81548152906001019060200180831161101a57829003601f168201915b50505050508152602001600582018054611050906136b0565b80601f016020809104026020016040519081016040528092919081815260200182805461107c906136b0565b80156110c95780601f1061109e576101008083540402835291602001916110c9565b820191906000526020600020905b8154815290600101906020018083116110ac57829003601f168201915b505050505081526020016006820180546110e2906136b0565b80601f016020809104026020016040519081016040528092919081815260200182805461110e906136b0565b801561115b5780601f106111305761010080835404028352916020019161115b565b820191906000526020600020905b81548152906001019060200180831161113e57829003601f168201915b50505050508152505081526020019060010190610e42565b50505050905090565b600080600160003373ffffffffffffffffffffffffffffffffffffffff1673ffffffffffffffffffffffffffffffffffffffff16815260200190815260200160002090508060030160009054906101000a900460ff16611211576040517f08c379a000000000000000000000000000000000000000000000000000000000815260040161120890613cb3565b60405180910390fd5b826040516020016112229190613d0f565b604051602081830303815290604052805190602001208160040160405160200161124c9190613da9565b6040516020818303038152906040528051906020012014915050919050565b6000803373ffffffffffffffffffffffffffffffffffffffff1673ffffffffffffffffffffffffffffffffffffffff16815260200190815260200160002060020160009054906101000a900460ff166112f9576040517f08c379a00000000000000000000000000000000000000000000000000000000081526004016112f090613e0c565b60405180910390fd5b3373ffffffffffffffffffffffffffffffffffffffff167fed80755c28decf7d349f02806c867be391e4380afbf48fbf1a71ca129886b5318260405161133f9190613e2c565b60405180910390a250565b6003818154811061135a57600080fd5b906000526020600020906007020160009150905080600001805461137d906136b0565b80601f01602080910402602001604051908101604052809291908181526020018280546113a9906136b0565b80156113f65780601f106113cb576101008083540402835291602001916113f6565b820191906000526020600020905b8154815290600101906020018083116113d957829003601f168201915b50505050509080600101805461140b906136b0565b80601f0160208091040260200160405190810160405280929190818152602001828054611437906136b0565b80156114845780601f1061145957610100808354040283529160200191611484565b820191906000526020600020905b81548152906001019060200180831161146757829003601f168201915b5050505050908060020160009054906101000a900460ff16908060030154908060040180546114b2906136b0565b80601f01602080910402602001604051908101604052809291908181526020018280546114de906136b0565b801561152b5780601f106115005761010080835404028352916020019161152b565b820191906000526020600020905b81548152906001019060200180831161150e57829003601f168201915b505050505090806005018054611540906136b0565b80601f016020809104026020016040519081016040528092919081815260200182805461156c906136b0565b80156115b95780601f1061158e576101008083540402835291602001916115b9565b820191906000526020600020905b81548152906001019060200180831161159c57829003601f168201915b5050505050908060060180546115ce906136b0565b80601f01602080910402602001604051908101604052809291908181526020018280546115fa906136b0565b80156116475780601f1061161c57610100808354040283529160200191611647565b820191906000526020600020905b81548152906001019060200180831161162a57829003601f168201915b5050505050905087565b60606004805480602002602001604051908101604052809291908181526020016000905b8282101561190a57838290600052602060002090600502016040518060a00160405290816000820180546116a8906136b0565b80601f01602080910402602001604051908101604052809291908181526020018280546116d4906136b0565b80156117215780601f106116f657610100808354040283529160200191611721565b820191906000526020600020905b81548152906001019060200180831161170457829003601f168201915b5050505050815260200160018201805461173a906136b0565b80601f0160208091040260200160405190810160405280929190818152602001828054611766906136b0565b80156117b35780601f10611788576101008083540402835291602001916117b3565b820191906000526020600020905b81548152906001019060200180831161179657829003601f168201915b505050505081526020016002820180546117cc906136b0565b80601f01602080910402602001604051908101604052809291908181526020018280546117f8906136b0565b80156118455780601f1061181a57610100808354040283529160200191611845565b820191906000526020600020905b81548152906001019060200180831161182857829003601f168201915b505050505081526020016003820160009054906101000a900460ff16151515158152602001600482018054611879906136b0565b80601f01602080910402602001604051908101604052809291908181526020018280546118a5906136b0565b80156118f25780601f106118c7576101008083540402835291602001916118f2565b820191906000526020600020905b8154815290600101906020018083116118d557829003601f168201915b50505050508152505081526020019060010190611675565b50505050905090565b606080600080600160008673ffffffffffffffffffffffffffffffffffffffff1673ffffffffffffffffffffffffffffffffffffffff1681526020019081526020016000206040518060a0016040529081600082018054611973906136b0565b80601f016020809104026020016040519081016040528092919081815260200182805461199f906136b0565b80156119ec5780601f106119c1576101008083540402835291602001916119ec565b820191906000526020600020905b8154815290600101906020018083116119cf57829003601f168201915b50505050508152602001600182018054611a05906136b0565b80601f0160208091040260200160405190810160405280929190818152602001828054611a31906136b0565b8015611a7e5780601f10611a5357610100808354040283529160200191611a7e565b820191906000526020600020905b815481529060010190602001808311611a6157829003601f168201915b50505050508152602001600282018054611a97906136b0565b80601f0160208091040260200160405190810160405280929190818152602001828054611ac3906136b0565b8015611b105780601f10611ae557610100808354040283529160200191611b10565b820191906000526020600020905b815481529060010190602001808311611af357829003601f168201915b505050505081526020016003820160009054906101000a900460ff16151515158152602001600482018054611b44906136b0565b80601f0160208091040260200160405190810160405280929190818152602001828054611b70906136b0565b8015611bbd5780601f10611b9257610100808354040283529160200191611bbd565b820191906000526020600020905b815481529060010190602001808311611ba057829003601f168201915b5050505050815250509050806000015181604001518260600151935093509350509193909250565b600160003373ffffffffffffffffffffffffffffffffffffffff1673ffffffffffffffffffffffffffffffffffffffff16815260200190815260200160002060030160009054906101000a900460ff1615611c75576040517f08c379a0000000000000000000000000000000000000000000000000000000008152600401611c6c90613e9a565b60405180910390fd5b6000611c818484612923565b90506040518060a0016040528085815260200184815260200182815260200160011515815260200183815250600160003373ffffffffffffffffffffffffffffffffffffffff1673ffffffffffffffffffffffffffffffffffffffff1681526020019081526020016000206000820151816000019081611d01919061388d565b506020820151816001019081611d17919061388d565b506040820151816002019081611d2d919061388d565b5060608201518160030160006101000a81548160ff0219169083151502179055506080820151816004019081611d63919061388d565b5090505033600282604051611d789190613d0f565b908152602001604051809103902060006101000a81548173ffffffffffffffffffffffffffffffffffffffff021916908373ffffffffffffffffffffffffffffffffffffffff1602179055506004600160003373ffffffffffffffffffffffffffffffffffffffff1673ffffffffffffffffffffffffffffffffffffffff168152602001908152602001600020908060018154018082558091505060019003906000526020600020906005020160009091909190915060008201816000019081611e429190613975565b5060018201816001019081611e579190613975565b5060028201816002019081611e6c9190613975565b506003820160009054906101000a900460ff168160030160006101000a81548160ff02191690831515021790555060048201816004019081611eae9190613975565b5050503373ffffffffffffffffffffffffffffffffffffffff167f2094a7a4a999e68c3cce1bf14375722d78a410fdc1c381b6e4c2f0c5aedd0fc0858584604051611efb93929190613a5d565b60405180910390a250505050565b6000602052806000526040600020600091509050806000018054611f2c906136b0565b80601f0160208091040260200160405190810160405280929190818152602001828054611f58906136b0565b8015611fa55780601f10611f7a57610100808354040283529160200191611fa5565b820191906000526020600020905b815481529060010190602001808311611f8857829003601f168201915b505050505090806001018054611fba906136b0565b80601f0160208091040260200160405190810160405280929190818152602001828054611fe6906136b0565b80156120335780601f1061200857610100808354040283529160200191612033565b820191906000526020600020905b81548152906001019060200180831161201657829003601f168201915b5050505050908060020160009054906101000a900460ff1690806003015490806004018054612061906136b0565b80601f016020809104026020016040519081016040528092919081815260200182805461208d906136b0565b80156120da5780601f106120af576101008083540402835291602001916120da565b820191906000526020600020905b8154815290600101906020018083116120bd57829003601f168201915b5050505050908060050180546120ef906136b0565b80601f016020809104026020016040519081016040528092919081815260200182805461211b906136b0565b80156121685780601f1061213d57610100808354040283529160200191612168565b820191906000526020600020905b81548152906001019060200180831161214b57829003601f168201915b50505050509080600601805461217d906136b0565b80601f01602080910402602001604051908101604052809291908181526020018280546121a9906136b0565b80156121f65780601f106121cb576101008083540402835291602001916121f6565b820191906000526020600020905b8154815290600101906020018083116121d957829003601f168201915b5050505050905087565b6001602052806000526040600020600091509050806000018054612223906136b0565b80601f016020809104026020016040519081016040528092919081815260200182805461224f906136b0565b801561229c5780601f106122715761010080835404028352916020019161229c565b820191906000526020600020905b81548152906001019060200180831161227f57829003601f168201915b5050505050908060010180546122b1906136b0565b80601f01602080910402602001604051908101604052809291908181526020018280546122dd906136b0565b801561232a5780601f106122ff5761010080835404028352916020019161232a565b820191906000526020600020905b81548152906001019060200180831161230d57829003601f168201915b50505050509080600201805461233f906136b0565b80601f016020809104026020016040519081016040528092919081815260200182805461236b906136b0565b80156123b85780601f1061238d576101008083540402835291602001916123b8565b820191906000526020600020905b81548152906001019060200180831161239b57829003601f168201915b5050505050908060030160009054906101000a900460ff16908060040180546123e0906136b0565b80601f016020809104026020016040519081016040528092919081815260200182805461240c906136b0565b80156124595780601f1061242e57610100808354040283529160200191612459565b820191906000526020600020905b81548152906001019060200180831161243c57829003601f168201915b5050505050905085565b6000806000803373ffffffffffffffffffffffffffffffffffffffff1673ffffffffffffffffffffffffffffffffffffffff16815260200190815260200160002090508060020160009054906101000a900460ff166124f7576040517f08c379a00000000000000000000000000000000000000000000000000000000081526004016124ee906134e5565b60405180910390fd5b836040516020016125089190613d0f565b60405160208183030381529060405280519060200120816005016040516020016125329190613da9565b604051602081830303815290604052805190602001201480156125a35750826040516020016125619190613d0f565b604051602081830303815290604052805190602001208160060160405160200161258b9190613da9565b60405160208183030381529060405280519060200120145b91505092915050565b6060806000606060008060008773ffffffffffffffffffffffffffffffffffffffff1673ffffffffffffffffffffffffffffffffffffffff1681526020019081526020016000206040518060e001604052908160008201805461260e906136b0565b80601f016020809104026020016040519081016040528092919081815260200182805461263a906136b0565b80156126875780601f1061265c57610100808354040283529160200191612687565b820191906000526020600020905b81548152906001019060200180831161266a57829003601f168201915b505050505081526020016001820180546126a0906136b0565b80601f01602080910402602001604051908101604052809291908181526020018280546126cc906136b0565b80156127195780601f106126ee57610100808354040283529160200191612719565b820191906000526020600020905b8154815290600101906020018083116126fc57829003601f168201915b505050505081526020016002820160009054906101000a900460ff1615151515815260200160038201548152602001600482018054612757906136b0565b80601f0160208091040260200160405190810160405280929190818152602001828054612783906136b0565b80156127d05780601f106127a5576101008083540402835291602001916127d0565b820191906000526020600020905b8154815290600101906020018083116127b357829003601f168201915b505050505081526020016005820180546127e9906136b0565b80601f0160208091040260200160405190810160405280929190818152602001828054612815906136b0565b80156128625780601f1061283757610100808354040283529160200191612862565b820191906000526020600020905b81548152906001019060200180831161284557829003601f168201915b5050505050815260200160068201805461287b906136b0565b80601f01602080910402602001604051908101604052809291908181526020018280546128a7906136b0565b80156128f45780601f106128c9576101008083540402835291602001916128f4565b820191906000526020600020905b8154815290600101906020018083116128d757829003601f168201915b505050505081525050905080600001518160200151826060015183608001519450945094509450509193509193565b60608282604051602001612938929190613eba565b6040516020818303038152906040528051906020012060405160200161295e9190613f09565b604051602081830303815290604052905092915050565b6000604051905090565b600080fd5b600080fd5b600073ffffffffffffffffffffffffffffffffffffffff82169050919050565b60006129b482612989565b9050919050565b6129c4816129a9565b81146129cf57600080fd5b50565b6000813590506129e1816129bb565b92915050565b6000602082840312156129fd576129fc61297f565b5b6000612a0b848285016129d2565b91505092915050565b600080fd5b600080fd5b6000601f19601f8301169050919050565b7f4e487b7100000000000000000000000000000000000000000000000000000000600052604160045260246000fd5b612a6782612a1e565b810181811067ffffffffffffffff82111715612a8657612a85612a2f565b5b80604052505050565b6000612a99612975565b9050612aa58282612a5e565b919050565b600067ffffffffffffffff821115612ac557612ac4612a2f565b5b612ace82612a1e565b9050602081019050919050565b82818337600083830152505050565b6000612afd612af884612aaa565b612a8f565b905082815260208101848484011115612b1957612b18612a19565b5b612b24848285612adb565b509392505050565b600082601f830112612b4157612b40612a14565b5b8135612b51848260208601612aea565b91505092915050565b600060208284031215612b7057612b6f61297f565b5b600082013567ffffffffffffffff811115612b8e57612b8d612984565b5b612b9a84828501612b2c565b91505092915050565b612bac816129a9565b82525050565b6000602082019050612bc76000830184612ba3565b92915050565b600080600080600060a08688031215612be957612be861297f565b5b600086013567ffffffffffffffff811115612c0757612c06612984565b5b612c1388828901612b2c565b955050602086013567ffffffffffffffff811115612c3457612c33612984565b5b612c4088828901612b2c565b945050604086013567ffffffffffffffff811115612c6157612c60612984565b5b612c6d88828901612b2c565b935050606086013567ffffffffffffffff811115612c8e57612c8d612984565b5b612c9a88828901612b2c565b925050608086013567ffffffffffffffff811115612cbb57612cba612984565b5b612cc788828901612b2c565b9150509295509295909350565b6000819050919050565b612ce781612cd4565b8114612cf257600080fd5b50565b600081359050612d0481612cde565b92915050565b600060208284031215612d2057612d1f61297f565b5b6000612d2e84828501612cf5565b91505092915050565b600081519050919050565b600082825260208201905092915050565b60005b83811015612d71578082015181840152602081019050612d56565b60008484015250505050565b6000612d8882612d37565b612d928185612d42565b9350612da2818560208601612d53565b612dab81612a1e565b840191505092915050565b60008115159050919050565b612dcb81612db6565b82525050565b600060a0820190508181036000830152612deb8188612d7d565b90508181036020830152612dff8187612d7d565b90508181036040830152612e138186612d7d565b9050612e226060830185612dc2565b8181036080830152612e348184612d7d565b90509695505050505050565b600081519050919050565b600082825260208201905092915050565b6000819050602082019050919050565b600082825260208201905092915050565b6000612e8882612d37565b612e928185612e6c565b9350612ea2818560208601612d53565b612eab81612a1e565b840191505092915050565b612ebf81612db6565b82525050565b612ece81612cd4565b82525050565b600060e0830160008301518482036000860152612ef18282612e7d565b91505060208301518482036020860152612f0b8282612e7d565b9150506040830151612f206040860182612eb6565b506060830151612f336060860182612ec5565b5060808301518482036080860152612f4b8282612e7d565b91505060a083015184820360a0860152612f658282612e7d565b91505060c083015184820360c0860152612f7f8282612e7d565b9150508091505092915050565b6000612f988383612ed4565b905092915050565b6000602082019050919050565b6000612fb882612e40565b612fc28185612e4b565b935083602082028501612fd485612e5c565b8060005b858110156130105784840389528151612ff18582612f8c565b9450612ffc83612fa0565b925060208a01995050600181019050612fd8565b50829750879550505050505092915050565b6000602082019050818103600083015261303c8184612fad565b905092915050565b60006020820190506130596000830184612dc2565b92915050565b61306881612cd4565b82525050565b600060e0820190508181036000830152613088818a612d7d565b9050818103602083015261309c8189612d7d565b90506130ab6040830188612dc2565b6130b8606083018761305f565b81810360808301526130ca8186612d7d565b905081810360a08301526130de8185612d7d565b905081810360c08301526130f28184612d7d565b905098975050505050505050565b600081519050919050565b600082825260208201905092915050565b6000819050602082019050919050565b600060a08301600083015184820360008601526131498282612e7d565b915050602083015184820360208601526131638282612e7d565b9150506040830151848203604086015261317d8282612e7d565b91505060608301516131926060860182612eb6565b50608083015184820360808601526131aa8282612e7d565b9150508091505092915050565b60006131c3838361312c565b905092915050565b6000602082019050919050565b60006131e382613100565b6131ed818561310b565b9350836020820285016131ff8561311c565b8060005b8581101561323b578484038952815161321c85826131b7565b9450613227836131cb565b925060208a01995050600181019050613203565b50829750879550505050505092915050565b6000602082019050818103600083015261326781846131d8565b905092915050565b600060608201905081810360008301526132898186612d7d565b9050818103602083015261329d8185612d7d565b90506132ac6040830184612dc2565b949350505050565b6000806000606084860312156132cd576132cc61297f565b5b600084013567ffffffffffffffff8111156132eb576132ea612984565b5b6132f786828701612b2c565b935050602084013567ffffffffffffffff81111561331857613317612984565b5b61332486828701612b2c565b925050604084013567ffffffffffffffff81111561334557613344612984565b5b61335186828701612b2c565b9150509250925092565b600080604083850312156133725761337161297f565b5b600083013567ffffffffffffffff8111156133905761338f612984565b5b61339c85828601612b2c565b925050602083013567ffffffffffffffff8111156133bd576133bc612984565b5b6133c985828601612b2c565b9150509250929050565b600060808201905081810360008301526133ed8187612d7d565b905081810360208301526134018186612d7d565b9050613410604083018561305f565b81810360608301526134228184612d7d565b905095945050505050565b7f4f6e6c792073706f6e736f72732063616e20646f6e6174650000000000000000600082015250565b6000613463601883612d42565b915061346e8261342d565b602082019050919050565b6000602082019050818103600083015261349281613456565b9050919050565b7f4170706c6963616e7420646f6573206e6f742065786973740000000000000000600082015250565b60006134cf601883612d42565b91506134da82613499565b602082019050919050565b600060208201905081810360008301526134fe816134c2565b9050919050565b7f446f6e6174696f6e20616d6f756e74206d75737420626520677265617465722060008201527f7468616e20300000000000000000000000000000000000000000000000000000602082015250565b6000613561602683612d42565b915061356c82613505565b604082019050919050565b6000602082019050818103600083015261359081613554565b9050919050565b7f4e487b7100000000000000000000000000000000000000000000000000000000600052601160045260246000fd5b60006135d182612cd4565b91506135dc83612cd4565b92508282019050808211156135f4576135f3613597565b5b92915050565b600060208201905061360f600083018461305f565b92915050565b7f4170706c6963616e7420616c7265616479207265676973746572656400000000600082015250565b600061364b601c83612d42565b915061365682613615565b602082019050919050565b6000602082019050818103600083015261367a8161363e565b9050919050565b7f4e487b7100000000000000000000000000000000000000000000000000000000600052602260045260246000fd5b600060028204905060018216806136c857607f821691505b6020821081036136db576136da613681565b5b50919050565b60008190508160005260206000209050919050565b60006020601f8301049050919050565b600082821b905092915050565b6000600883026137437fffffffffffffffffffffffffffffffffffffffffffffffffffffffffffffffff82613706565b61374d8683613706565b95508019841693508086168417925050509392505050565b6000819050919050565b600061378a61378561378084612cd4565b613765565b612cd4565b9050919050565b6000819050919050565b6137a48361376f565b6137b86137b082613791565b848454613713565b825550505050565b600090565b6137cd6137c0565b6137d881848461379b565b505050565b5b818110156137fc576137f16000826137c5565b6001810190506137de565b5050565b601f82111561384157613812816136e1565b61381b846136f6565b8101602085101561382a578190505b61383e613836856136f6565b8301826137dd565b50505b505050565b600082821c905092915050565b600061386460001984600802613846565b1980831691505092915050565b600061387d8383613853565b9150826002028217905092915050565b61389682612d37565b67ffffffffffffffff8111156138af576138ae612a2f565b5b6138b982546136b0565b6138c4828285613800565b600060209050601f8311600181146138f757600084156138e5578287015190505b6138ef8582613871565b865550613957565b601f198416613905866136e1565b60005b8281101561392d57848901518255600182019150602085019450602081019050613908565b8683101561394a5784890151613946601f891682613853565b8355505b6001600288020188555050505b505050505050565b60008154905061396e816136b0565b9050919050565b818103613983575050613a5b565b61398c8261395f565b67ffffffffffffffff8111156139a5576139a4612a2f565b5b6139af82546136b0565b6139ba828285613800565b6000601f8311600181146139e957600084156139d7578287015490505b6139e18582613871565b865550613a54565b601f1984166139f7876136e1565b9650613a02866136e1565b60005b82811015613a2a57848901548255600182019150600185019450602081019050613a05565b86831015613a475784890154613a43601f891682613853565b8355505b6001600288020188555050505b5050505050505b565b60006060820190508181036000830152613a778186612d7d565b90508181036020830152613a8b8185612d7d565b90508181036040830152613a9f8184612d7d565b9050949350505050565b7f4f6e6c79206170706c6963616e74732063616e20776974686472617700000000600082015250565b6000613adf601c83612d42565b9150613aea82613aa9565b602082019050919050565b60006020820190508181036000830152613b0e81613ad2565b9050919050565b7f496e73756666696369656e742066756e64730000000000000000000000000000600082015250565b6000613b4b601283612d42565b9150613b5682613b15565b602082019050919050565b60006020820190508181036000830152613b7a81613b3e565b9050919050565b6000613b8c82612cd4565b9150613b9783612cd4565b9250828203905081811115613baf57613bae613597565b5b92915050565b600081905092915050565b50565b6000613bd0600083613bb5565b9150613bdb82613bc0565b600082019050919050565b6000613bf182613bc3565b9150819050919050565b7f5769746864726177616c206661696c6564000000000000000000000000000000600082015250565b6000613c31601183612d42565b9150613c3c82613bfb565b602082019050919050565b60006020820190508181036000830152613c6081613c24565b9050919050565b7f53706f6e736f7220646f6573206e6f7420657869737400000000000000000000600082015250565b6000613c9d601683612d42565b9150613ca882613c67565b602082019050919050565b60006020820190508181036000830152613ccc81613c90565b9050919050565b600081905092915050565b6000613ce982612d37565b613cf38185613cd3565b9350613d03818560208601612d53565b80840191505092915050565b6000613d1b8284613cde565b915081905092915050565b60008154613d33816136b0565b613d3d8186613cd3565b94506001821660008114613d585760018114613d6d57613da0565b60ff1983168652811515820286019350613da0565b613d76856136e1565b60005b83811015613d9857815481890152600182019150602081019050613d79565b838801955050505b50505092915050565b6000613db58284613d26565b915081905092915050565b7f4f6e6c79206170706c6963616e74732063616e20726571756573742068656c70600082015250565b6000613df6602083612d42565b9150613e0182613dc0565b602082019050919050565b60006020820190508181036000830152613e2581613de9565b9050919050565b60006020820190508181036000830152613e468184612d7d565b905092915050565b7f53706f6e736f7220616c72656164792072656769737465726564000000000000600082015250565b6000613e84601a83612d42565b9150613e8f82613e4e565b602082019050919050565b60006020820190508181036000830152613eb381613e77565b9050919050565b6000613ec68285613cde565b9150613ed28284613cde565b91508190509392505050565b6000819050919050565b6000819050919050565b613f03613efe82613ede565b613ee8565b82525050565b6000613f158284613ef2565b6020820191508190509291505056fea2646970667358221220e9261614bae4629a2f4d5ad857182d4a61f9aa8a867974ec71045f15c8fb84c464736f6c634300081a0033",
  "linkReferences": {},
  "deployedLinkReferences": {}
}