{
  "contracts/Charity.sol": {
    "CharityDonation": {
      "abi": [
        {
          "inputs": [],
          "stateMutability": "nonpayable",
          "type": "constructor"
        },
        {
          "anonymous": false,
          "inputs": [
            {
              "indexed": true,
              "internalType": "uint256",
              "name": "charityId",
              "type": "uint256"
            },
            {
              "indexed": true,
              "internalType": "address",
              "name": "receiver",
              "type": "address"
            },
            {
              "indexed": false,
              "internalType": "uint256",
              "name": "maxAmount",
              "type": "uint256"
            }
          ],
          "name": "CharityCreated",
          "type": "event"
        },
        {
          "anonymous": false,
          "inputs": [
            {
              "indexed": true,
              "internalType": "uint256",
              "name": "charityId",
              "type": "uint256"
            },
            {
              "indexed": true,
              "internalType": "address",
              "name": "donor",
              "type": "address"
            },
            {
              "indexed": false,
              "internalType": "uint256",
              "name": "amount",
              "type": "uint256"
            }
          ],
          "name": "DonationReceived",
          "type": "event"
        },
        {
          "anonymous": false,
          "inputs": [
            {
              "indexed": true,
              "internalType": "uint256",
              "name": "charityId",
              "type": "uint256"
            },
            {
              "indexed": false,
              "internalType": "uint256",
              "name": "amount",
              "type": "uint256"
            }
          ],
          "name": "FundsWithdrawn",
          "type": "event"
        },
        {
          "inputs": [],
          "name": "admin",
          "outputs": [
            {
              "internalType": "address",
              "name": "",
              "type": "address"
            }
          ],
          "stateMutability": "view",
          "type": "function"
        },
        {
          "inputs": [],
          "name": "charityCount",
          "outputs": [
            {
              "internalType": "uint256",
              "name": "",
              "type": "uint256"
            }
          ],
          "stateMutability": "view",
          "type": "function"
        },
        {
          "inputs": [
            {
              "internalType": "uint256",
              "name": "",
              "type": "uint256"
            },
            {
              "internalType": "uint256",
              "name": "",
              "type": "uint256"
            }
          ],
          "name": "charityDonations",
          "outputs": [
            {
              "internalType": "address",
              "name": "donor",
              "type": "address"
            },
            {
              "internalType": "uint256",
              "name": "amount",
              "type": "uint256"
            },
            {
              "internalType": "uint256",
              "name": "timestamp",
              "type": "uint256"
            }
          ],
          "stateMutability": "view",
          "type": "function"
        },
        {
          "inputs": [
            {
              "internalType": "uint256",
              "name": "",
              "type": "uint256"
            }
          ],
          "name": "charityRequests",
          "outputs": [
            {
              "internalType": "uint256",
              "name": "id",
              "type": "uint256"
            },
            {
              "internalType": "address",
              "name": "receiver",
              "type": "address"
            },
            {
              "internalType": "uint256",
              "name": "maxAmount",
              "type": "uint256"
            },
            {
              "internalType": "uint256",
              "name": "collected",
              "type": "uint256"
            },
            {
              "internalType": "uint256",
              "name": "balance",
              "type": "uint256"
            },
            {
              "internalType": "bool",
              "name": "status",
              "type": "bool"
            }
          ],
          "stateMutability": "view",
          "type": "function"
        },
        {
          "inputs": [
            {
              "internalType": "uint256",
              "name": "_charityId",
              "type": "uint256"
            },
            {
              "internalType": "address",
              "name": "_receiver",
              "type": "address"
            },
            {
              "internalType": "uint256",
              "name": "_maxAmount",
              "type": "uint256"
            }
          ],
          "name": "createCharityRequest",
          "outputs": [],
          "stateMutability": "nonpayable",
          "type": "function"
        },
        {
          "inputs": [
            {
              "internalType": "uint256",
              "name": "_charityId",
              "type": "uint256"
            },
            {
              "internalType": "uint256",
              "name": "_amount",
              "type": "uint256"
            }
          ],
          "name": "donate",
          "outputs": [],
          "stateMutability": "payable",
          "type": "function"
        },
        {
          "inputs": [
            {
              "internalType": "uint256",
              "name": "_charityId",
              "type": "uint256"
            }
          ],
          "name": "getContractBalance",
          "outputs": [
            {
              "internalType": "uint256",
              "name": "",
              "type": "uint256"
            }
          ],
          "stateMutability": "view",
          "type": "function"
        },
        {
          "inputs": [
            {
              "internalType": "uint256",
              "name": "_charityId",
              "type": "uint256"
            }
          ],
          "name": "getDonations",
          "outputs": [
            {
              "components": [
                {
                  "internalType": "address",
                  "name": "donor",
                  "type": "address"
                },
                {
                  "internalType": "uint256",
                  "name": "amount",
                  "type": "uint256"
                },
                {
                  "internalType": "uint256",
                  "name": "timestamp",
                  "type": "uint256"
                }
              ],
              "internalType": "struct CharityDonation.Donation[]",
              "name": "",
              "type": "tuple[]"
            }
          ],
          "stateMutability": "view",
          "type": "function"
        },
        {
          "inputs": [
            {
              "internalType": "uint256",
              "name": "_charityId",
              "type": "uint256"
            },
            {
              "internalType": "uint256",
              "name": "_amount",
              "type": "uint256"
            }
          ],
          "name": "withdraw",
          "outputs": [],
          "stateMutability": "payable",
          "type": "function"
        }
      ],
      "evm": {
        "bytecode": {
          "linkReferences": {},
          "object": "6080604052348015600f57600080fd5b50336000806101000a81548173ffffffffffffffffffffffffffffffffffffffff021916908373ffffffffffffffffffffffffffffffffffffffff160217905550611a8f8061005f6000396000f3fe6080604052600436106100865760003560e01c80635cbbb574116100595780635cbbb5741461013d5780635effffa91461017c57806391329493146101be578063f851a440146101e9578063ffded55d1461021457610086565b806305d630701461008b5780630cdd53f6146100c8578063441a3e70146100e4578063596d9ce214610100575b600080fd5b34801561009757600080fd5b506100b260048036038101906100ad9190610f47565b61023d565b6040516100bf9190610f83565b60405180910390f35b6100e260048036038101906100dd9190610f9e565b6103bf565b005b6100fe60048036038101906100f99190610f9e565b61067a565b005b34801561010c57600080fd5b5061012760048036038101906101229190610f47565b610950565b604051610134919061111f565b60405180910390f35b34801561014957600080fd5b50610164600480360381019061015f9190610f9e565b610b20565b60405161017393929190611150565b60405180910390f35b34801561018857600080fd5b506101a3600480360381019061019e9190610f47565b610b87565b6040516101b5969594939291906111a2565b60405180910390f35b3480156101ca57600080fd5b506101d3610bf0565b6040516101e09190610f83565b60405180910390f35b3480156101f557600080fd5b506101fe610bf6565b60405161020b9190611203565b60405180910390f35b34801561022057600080fd5b5061023b6004803603810190610236919061124a565b610c1a565b005b60008160008054906101000a900473ffffffffffffffffffffffffffffffffffffffff1673ffffffffffffffffffffffffffffffffffffffff163373ffffffffffffffffffffffffffffffffffffffff1614806102fb57506001600082815260200190815260200160002060010160009054906101000a900473ffffffffffffffffffffffffffffffffffffffff1673ffffffffffffffffffffffffffffffffffffffff163373ffffffffffffffffffffffffffffffffffffffff16145b61033a576040517f08c379a000000000000000000000000000000000000000000000000000000000815260040161033190611320565b60405180910390fd5b60008311801561036157506000600160008581526020019081526020016000206000015414155b6103a0576040517f08c379a00000000000000000000000000000000000000000000000000000000081526004016103979061138c565b60405180910390fd5b6001600084815260200190815260200160002060040154915050919050565b6000821180156103e657506000600160008481526020019081526020016000206000015414155b610425576040517f08c379a000000000000000000000000000000000000000000000000000000000815260040161041c9061138c565b60405180910390fd5b60006001600084815260200190815260200160002090508060050160009054906101000a900460ff1661048d576040517f08c379a0000000000000000000000000000000000000000000000000000000008152600401610484906113f8565b60405180910390fd5b600082116104d0576040517f08c379a00000000000000000000000000000000000000000000000000000000081526004016104c79061148a565b60405180910390fd5b80600201548282600301546104e591906114d9565b1115610526576040517f08c379a000000000000000000000000000000000000000000000000000000000815260040161051d9061157f565b60405180910390fd5b8181600301600082825461053a91906114d9565b925050819055508181600401600082825461055591906114d9565b925050819055506002600084815260200190815260200160002060405180606001604052803373ffffffffffffffffffffffffffffffffffffffff16815260200184815260200142815250908060018154018082558091505060019003906000526020600020906003020160009091909190915060008201518160000160006101000a81548173ffffffffffffffffffffffffffffffffffffffff021916908373ffffffffffffffffffffffffffffffffffffffff160217905550602082015181600101556040820151816002015550503373ffffffffffffffffffffffffffffffffffffffff16837f0b5b4c52969ff7329ecf7ee536409fda87812b15a8622bc6e8cdeab3aee14a268460405161066d9190610f83565b60405180910390a3505050565b816001600082815260200190815260200160002060010160009054906101000a900473ffffffffffffffffffffffffffffffffffffffff1673ffffffffffffffffffffffffffffffffffffffff163373ffffffffffffffffffffffffffffffffffffffff161461071f576040517f08c379a000000000000000000000000000000000000000000000000000000000815260040161071690611611565b60405180910390fd5b60008311801561074657506000600160008581526020019081526020016000206000015414155b610785576040517f08c379a000000000000000000000000000000000000000000000000000000000815260040161077c9061138c565b60405180910390fd5b6000600160008581526020019081526020016000209050600083116107df576040517f08c379a00000000000000000000000000000000000000000000000000000000081526004016107d6906116a3565b60405180910390fd5b8060040154831115610826576040517f08c379a000000000000000000000000000000000000000000000000000000000815260040161081d9061170f565b60405180910390fd5b8281600401600082825461083a919061172f565b9250508190555060008160010160009054906101000a900473ffffffffffffffffffffffffffffffffffffffff1673ffffffffffffffffffffffffffffffffffffffff168460405161088b90611794565b60006040518083038185875af1925050503d80600081146108c8576040519150601f19603f3d011682016040523d82523d6000602084013e6108cd565b606091505b5050905080610911576040517f08c379a0000000000000000000000000000000000000000000000000000000008152600401610908906117f5565b60405180910390fd5b847fd66662c0ded9e58fd31d5e44944bcfd07ffc15e6927ecc1382e7941cb7bd24c4856040516109419190610f83565b60405180910390a25050505050565b606060008054906101000a900473ffffffffffffffffffffffffffffffffffffffff1673ffffffffffffffffffffffffffffffffffffffff163373ffffffffffffffffffffffffffffffffffffffff16146109e0576040517f08c379a00000000000000000000000000000000000000000000000000000000081526004016109d790611887565b60405180910390fd5b600082118015610a0757506000600160008481526020019081526020016000206000015414155b610a46576040517f08c379a0000000000000000000000000000000000000000000000000000000008152600401610a3d9061138c565b60405180910390fd5b60026000838152602001908152602001600020805480602002602001604051908101604052809291908181526020016000905b82821015610b1557838290600052602060002090600302016040518060600160405290816000820160009054906101000a900473ffffffffffffffffffffffffffffffffffffffff1673ffffffffffffffffffffffffffffffffffffffff1673ffffffffffffffffffffffffffffffffffffffff1681526020016001820154815260200160028201548152505081526020019060010190610a79565b505050509050919050565b60026020528160005260406000208181548110610b3c57600080fd5b9060005260206000209060030201600091509150508060000160009054906101000a900473ffffffffffffffffffffffffffffffffffffffff16908060010154908060020154905083565b60016020528060005260406000206000915090508060000154908060010160009054906101000a900473ffffffffffffffffffffffffffffffffffffffff16908060020154908060030154908060040154908060050160009054906101000a900460ff16905086565b60035481565b60008054906101000a900473ffffffffffffffffffffffffffffffffffffffff1681565b60008054906101000a900473ffffffffffffffffffffffffffffffffffffffff1673ffffffffffffffffffffffffffffffffffffffff163373ffffffffffffffffffffffffffffffffffffffff1614610ca8576040517f08c379a0000000000000000000000000000000000000000000000000000000008152600401610c9f90611887565b60405180910390fd5b600073ffffffffffffffffffffffffffffffffffffffff168273ffffffffffffffffffffffffffffffffffffffff1603610d17576040517f08c379a0000000000000000000000000000000000000000000000000000000008152600401610d0e906118f3565b60405180910390fd5b60008111610d5a576040517f08c379a0000000000000000000000000000000000000000000000000000000008152600401610d5190611985565b60405180910390fd5b6000600160008581526020019081526020016000206000015414610db3576040517f08c379a0000000000000000000000000000000000000000000000000000000008152600401610daa906119f1565b60405180910390fd5b60036000815480929190610dc690611a11565b91905055506040518060c001604052808481526020018373ffffffffffffffffffffffffffffffffffffffff168152602001828152602001600081526020016000815260200160011515815250600160008581526020019081526020016000206000820151816000015560208201518160010160006101000a81548173ffffffffffffffffffffffffffffffffffffffff021916908373ffffffffffffffffffffffffffffffffffffffff16021790555060408201518160020155606082015181600301556080820151816004015560a08201518160050160006101000a81548160ff0219169083151502179055509050508173ffffffffffffffffffffffffffffffffffffffff16837f23cfba9a727e6db64da9ef036aa94852b70708eea64c7fe06f7dfd629404fc4f83604051610eff9190610f83565b60405180910390a3505050565b600080fd5b6000819050919050565b610f2481610f11565b8114610f2f57600080fd5b50565b600081359050610f4181610f1b565b92915050565b600060208284031215610f5d57610f5c610f0c565b5b6000610f6b84828501610f32565b91505092915050565b610f7d81610f11565b82525050565b6000602082019050610f986000830184610f74565b92915050565b60008060408385031215610fb557610fb4610f0c565b5b6000610fc385828601610f32565b9250506020610fd485828601610f32565b9150509250929050565b600081519050919050565b600082825260208201905092915050565b6000819050602082019050919050565b600073ffffffffffffffffffffffffffffffffffffffff82169050919050565b60006110358261100a565b9050919050565b6110458161102a565b82525050565b61105481610f11565b82525050565b606082016000820151611070600085018261103c565b506020820151611083602085018261104b565b506040820151611096604085018261104b565b50505050565b60006110a8838361105a565b60608301905092915050565b6000602082019050919050565b60006110cc82610fde565b6110d68185610fe9565b93506110e183610ffa565b8060005b838110156111125781516110f9888261109c565b9750611104836110b4565b9250506001810190506110e5565b5085935050505092915050565b6000602082019050818103600083015261113981846110c1565b905092915050565b61114a8161102a565b82525050565b60006060820190506111656000830186611141565b6111726020830185610f74565b61117f6040830184610f74565b949350505050565b60008115159050919050565b61119c81611187565b82525050565b600060c0820190506111b76000830189610f74565b6111c46020830188611141565b6111d16040830187610f74565b6111de6060830186610f74565b6111eb6080830185610f74565b6111f860a0830184611193565b979650505050505050565b60006020820190506112186000830184611141565b92915050565b6112278161102a565b811461123257600080fd5b50565b6000813590506112448161121e565b92915050565b60008060006060848603121561126357611262610f0c565b5b600061127186828701610f32565b935050602061128286828701611235565b925050604061129386828701610f32565b9150509250925092565b600082825260208201905092915050565b7f4f6e6c79207468652061646d696e206f72207468652061737369676e6564207260008201527f656365697665722063616e20706572666f726d207468697320616374696f6e2e602082015250565b600061130a60408361129d565b9150611315826112ae565b604082019050919050565b60006020820190508181036000830152611339816112fd565b9050919050565b7f496e76616c696420636861726974792049442e00000000000000000000000000600082015250565b600061137660138361129d565b915061138182611340565b602082019050919050565b600060208201905081810360008301526113a581611369565b9050919050565b7f436861726974792072657175657374206973206e6f74206163746976652e0000600082015250565b60006113e2601e8361129d565b91506113ed826113ac565b602082019050919050565b60006020820190508181036000830152611411816113d5565b9050919050565b7f446f6e6174696f6e20616d6f756e74206d75737420626520677265617465722060008201527f7468616e207a65726f2e00000000000000000000000000000000000000000000602082015250565b6000611474602a8361129d565b915061147f82611418565b604082019050919050565b600060208201905081810360008301526114a381611467565b9050919050565b7f4e487b7100000000000000000000000000000000000000000000000000000000600052601160045260246000fd5b60006114e482610f11565b91506114ef83610f11565b9250828201905080821115611507576115066114aa565b5b92915050565b7f446f6e6174696f6e206578636565647320726571756972656420616d6f756e7460008201527f2e00000000000000000000000000000000000000000000000000000000000000602082015250565b600061156960218361129d565b91506115748261150d565b604082019050919050565b600060208201905081810360008301526115988161155c565b9050919050565b7f4f6e6c79207468652061737369676e65642072656365697665722063616e207060008201527f6572666f726d207468697320616374696f6e2e00000000000000000000000000602082015250565b60006115fb60338361129d565b91506116068261159f565b604082019050919050565b6000602082019050818103600083015261162a816115ee565b9050919050565b7f5769746864726177616c20616d6f756e74206d7573742062652067726561746560008201527f72207468616e207a65726f2e0000000000000000000000000000000000000000602082015250565b600061168d602c8361129d565b915061169882611631565b604082019050919050565b600060208201905081810360008301526116bc81611680565b9050919050565b7f496e73756666696369656e742062616c616e63652e0000000000000000000000600082015250565b60006116f960158361129d565b9150611704826116c3565b602082019050919050565b60006020820190508181036000830152611728816116ec565b9050919050565b600061173a82610f11565b915061174583610f11565b925082820390508181111561175d5761175c6114aa565b5b92915050565b600081905092915050565b50565b600061177e600083611763565b91506117898261176e565b600082019050919050565b600061179f82611771565b9150819050919050565b7f5769746864726177616c206661696c65642e0000000000000000000000000000600082015250565b60006117df60128361129d565b91506117ea826117a9565b602082019050919050565b6000602082019050818103600083015261180e816117d2565b9050919050565b7f4f6e6c79207468652061646d696e2063616e20706572666f726d20746869732060008201527f616374696f6e2e00000000000000000000000000000000000000000000000000602082015250565b600061187160278361129d565b915061187c82611815565b604082019050919050565b600060208201905081810360008301526118a081611864565b9050919050565b7f526563656976657220616464726573732063616e6e6f74206265207a65726f2e600082015250565b60006118dd60208361129d565b91506118e8826118a7565b602082019050919050565b6000602082019050818103600083015261190c816118d0565b9050919050565b7f4d6178696d756d20616d6f756e74206d7573742062652067726561746572207460008201527f68616e207a65726f2e0000000000000000000000000000000000000000000000602082015250565b600061196f60298361129d565b915061197a82611913565b604082019050919050565b6000602082019050818103600083015261199e81611962565b9050919050565b7f4368617269747920494420616c7265616479206578697374732e000000000000600082015250565b60006119db601a8361129d565b91506119e6826119a5565b602082019050919050565b60006020820190508181036000830152611a0a816119ce565b9050919050565b6000611a1c82610f11565b91507fffffffffffffffffffffffffffffffffffffffffffffffffffffffffffffffff8203611a4e57611a4d6114aa565b5b60018201905091905056fea2646970667358221220b9566058e41679a52be843461c98a9dc7805163d7e2d1cafde60f38b736a4e0464736f6c634300081a0033",
          "opcodes": "PUSH1 0x80 PUSH1 0x40 MSTORE CALLVALUE DUP1 ISZERO PUSH1 0xF JUMPI PUSH1 0x0 DUP1 REVERT JUMPDEST POP CALLER PUSH1 0x0 DUP1 PUSH2 0x100 EXP DUP2 SLOAD DUP2 PUSH20 0xFFFFFFFFFFFFFFFFFFFFFFFFFFFFFFFFFFFFFFFF MUL NOT AND SWAP1 DUP4 PUSH20 0xFFFFFFFFFFFFFFFFFFFFFFFFFFFFFFFFFFFFFFFF AND MUL OR SWAP1 SSTORE POP PUSH2 0x1A8F DUP1 PUSH2 0x5F PUSH1 0x0 CODECOPY PUSH1 0x0 RETURN INVALID PUSH1 0x80 PUSH1 0x40 MSTORE PUSH1 0x4 CALLDATASIZE LT PUSH2 0x86 JUMPI PUSH1 0x0 CALLDATALOAD PUSH1 0xE0 SHR DUP1 PUSH4 0x5CBBB574 GT PUSH2 0x59 JUMPI DUP1 PUSH4 0x5CBBB574 EQ PUSH2 0x13D JUMPI DUP1 PUSH4 0x5EFFFFA9 EQ PUSH2 0x17C JUMPI DUP1 PUSH4 0x91329493 EQ PUSH2 0x1BE JUMPI DUP1 PUSH4 0xF851A440 EQ PUSH2 0x1E9 JUMPI DUP1 PUSH4 0xFFDED55D EQ PUSH2 0x214 JUMPI PUSH2 0x86 JUMP JUMPDEST DUP1 PUSH4 0x5D63070 EQ PUSH2 0x8B JUMPI DUP1 PUSH4 0xCDD53F6 EQ PUSH2 0xC8 JUMPI DUP1 PUSH4 0x441A3E70 EQ PUSH2 0xE4 JUMPI DUP1 PUSH4 0x596D9CE2 EQ PUSH2 0x100 JUMPI JUMPDEST PUSH1 0x0 DUP1 REVERT JUMPDEST CALLVALUE DUP1 ISZERO PUSH2 0x97 JUMPI PUSH1 0x0 DUP1 REVERT JUMPDEST POP PUSH2 0xB2 PUSH1 0x4 DUP1 CALLDATASIZE SUB DUP2 ADD SWAP1 PUSH2 0xAD SWAP2 SWAP1 PUSH2 0xF47 JUMP JUMPDEST PUSH2 0x23D JUMP JUMPDEST PUSH1 0x40 MLOAD PUSH2 0xBF SWAP2 SWAP1 PUSH2 0xF83 JUMP JUMPDEST PUSH1 0x40 MLOAD DUP1 SWAP2 SUB SWAP1 RETURN JUMPDEST PUSH2 0xE2 PUSH1 0x4 DUP1 CALLDATASIZE SUB DUP2 ADD SWAP1 PUSH2 0xDD SWAP2 SWAP1 PUSH2 0xF9E JUMP JUMPDEST PUSH2 0x3BF JUMP JUMPDEST STOP JUMPDEST PUSH2 0xFE PUSH1 0x4 DUP1 CALLDATASIZE SUB DUP2 ADD SWAP1 PUSH2 0xF9 SWAP2 SWAP1 PUSH2 0xF9E JUMP JUMPDEST PUSH2 0x67A JUMP JUMPDEST STOP JUMPDEST CALLVALUE DUP1 ISZERO PUSH2 0x10C JUMPI PUSH1 0x0 DUP1 REVERT JUMPDEST POP PUSH2 0x127 PUSH1 0x4 DUP1 CALLDATASIZE SUB DUP2 ADD SWAP1 PUSH2 0x122 SWAP2 SWAP1 PUSH2 0xF47 JUMP JUMPDEST PUSH2 0x950 JUMP JUMPDEST PUSH1 0x40 MLOAD PUSH2 0x134 SWAP2 SWAP1 PUSH2 0x111F JUMP JUMPDEST PUSH1 0x40 MLOAD DUP1 SWAP2 SUB SWAP1 RETURN JUMPDEST CALLVALUE DUP1 ISZERO PUSH2 0x149 JUMPI PUSH1 0x0 DUP1 REVERT JUMPDEST POP PUSH2 0x164 PUSH1 0x4 DUP1 CALLDATASIZE SUB DUP2 ADD SWAP1 PUSH2 0x15F SWAP2 SWAP1 PUSH2 0xF9E JUMP JUMPDEST PUSH2 0xB20 JUMP JUMPDEST PUSH1 0x40 MLOAD PUSH2 0x173 SWAP4 SWAP3 SWAP2 SWAP1 PUSH2 0x1150 JUMP JUMPDEST PUSH1 0x40 MLOAD DUP1 SWAP2 SUB SWAP1 RETURN JUMPDEST CALLVALUE DUP1 ISZERO PUSH2 0x188 JUMPI PUSH1 0x0 DUP1 REVERT JUMPDEST POP PUSH2 0x1A3 PUSH1 0x4 DUP1 CALLDATASIZE SUB DUP2 ADD SWAP1 PUSH2 0x19E SWAP2 SWAP1 PUSH2 0xF47 JUMP JUMPDEST PUSH2 0xB87 JUMP JUMPDEST PUSH1 0x40 MLOAD PUSH2 0x1B5 SWAP7 SWAP6 SWAP5 SWAP4 SWAP3 SWAP2 SWAP1 PUSH2 0x11A2 JUMP JUMPDEST PUSH1 0x40 MLOAD DUP1 SWAP2 SUB SWAP1 RETURN JUMPDEST CALLVALUE DUP1 ISZERO PUSH2 0x1CA JUMPI PUSH1 0x0 DUP1 REVERT JUMPDEST POP PUSH2 0x1D3 PUSH2 0xBF0 JUMP JUMPDEST PUSH1 0x40 MLOAD PUSH2 0x1E0 SWAP2 SWAP1 PUSH2 0xF83 JUMP JUMPDEST PUSH1 0x40 MLOAD DUP1 SWAP2 SUB SWAP1 RETURN JUMPDEST CALLVALUE DUP1 ISZERO PUSH2 0x1F5 JUMPI PUSH1 0x0 DUP1 REVERT JUMPDEST POP PUSH2 0x1FE PUSH2 0xBF6 JUMP JUMPDEST PUSH1 0x40 MLOAD PUSH2 0x20B SWAP2 SWAP1 PUSH2 0x1203 JUMP JUMPDEST PUSH1 0x40 MLOAD DUP1 SWAP2 SUB SWAP1 RETURN JUMPDEST CALLVALUE DUP1 ISZERO PUSH2 0x220 JUMPI PUSH1 0x0 DUP1 REVERT JUMPDEST POP PUSH2 0x23B PUSH1 0x4 DUP1 CALLDATASIZE SUB DUP2 ADD SWAP1 PUSH2 0x236 SWAP2 SWAP1 PUSH2 0x124A JUMP JUMPDEST PUSH2 0xC1A JUMP JUMPDEST STOP JUMPDEST PUSH1 0x0 DUP2 PUSH1 0x0 DUP1 SLOAD SWAP1 PUSH2 0x100 EXP SWAP1 DIV PUSH20 0xFFFFFFFFFFFFFFFFFFFFFFFFFFFFFFFFFFFFFFFF AND PUSH20 0xFFFFFFFFFFFFFFFFFFFFFFFFFFFFFFFFFFFFFFFF AND CALLER PUSH20 0xFFFFFFFFFFFFFFFFFFFFFFFFFFFFFFFFFFFFFFFF AND EQ DUP1 PUSH2 0x2FB JUMPI POP PUSH1 0x1 PUSH1 0x0 DUP3 DUP2 MSTORE PUSH1 0x20 ADD SWAP1 DUP2 MSTORE PUSH1 0x20 ADD PUSH1 0x0 KECCAK256 PUSH1 0x1 ADD PUSH1 0x0 SWAP1 SLOAD SWAP1 PUSH2 0x100 EXP SWAP1 DIV PUSH20 0xFFFFFFFFFFFFFFFFFFFFFFFFFFFFFFFFFFFFFFFF AND PUSH20 0xFFFFFFFFFFFFFFFFFFFFFFFFFFFFFFFFFFFFFFFF AND CALLER PUSH20 0xFFFFFFFFFFFFFFFFFFFFFFFFFFFFFFFFFFFFFFFF AND EQ JUMPDEST PUSH2 0x33A JUMPI PUSH1 0x40 MLOAD PUSH32 0x8C379A000000000000000000000000000000000000000000000000000000000 DUP2 MSTORE PUSH1 0x4 ADD PUSH2 0x331 SWAP1 PUSH2 0x1320 JUMP JUMPDEST PUSH1 0x40 MLOAD DUP1 SWAP2 SUB SWAP1 REVERT JUMPDEST PUSH1 0x0 DUP4 GT DUP1 ISZERO PUSH2 0x361 JUMPI POP PUSH1 0x0 PUSH1 0x1 PUSH1 0x0 DUP6 DUP2 MSTORE PUSH1 0x20 ADD SWAP1 DUP2 MSTORE PUSH1 0x20 ADD PUSH1 0x0 KECCAK256 PUSH1 0x0 ADD SLOAD EQ ISZERO JUMPDEST PUSH2 0x3A0 JUMPI PUSH1 0x40 MLOAD PUSH32 0x8C379A000000000000000000000000000000000000000000000000000000000 DUP2 MSTORE PUSH1 0x4 ADD PUSH2 0x397 SWAP1 PUSH2 0x138C JUMP JUMPDEST PUSH1 0x40 MLOAD DUP1 SWAP2 SUB SWAP1 REVERT JUMPDEST PUSH1 0x1 PUSH1 0x0 DUP5 DUP2 MSTORE PUSH1 0x20 ADD SWAP1 DUP2 MSTORE PUSH1 0x20 ADD PUSH1 0x0 KECCAK256 PUSH1 0x4 ADD SLOAD SWAP2 POP POP SWAP2 SWAP1 POP JUMP JUMPDEST PUSH1 0x0 DUP3 GT DUP1 ISZERO PUSH2 0x3E6 JUMPI POP PUSH1 0x0 PUSH1 0x1 PUSH1 0x0 DUP5 DUP2 MSTORE PUSH1 0x20 ADD SWAP1 DUP2 MSTORE PUSH1 0x20 ADD PUSH1 0x0 KECCAK256 PUSH1 0x0 ADD SLOAD EQ ISZERO JUMPDEST PUSH2 0x425 JUMPI PUSH1 0x40 MLOAD PUSH32 0x8C379A000000000000000000000000000000000000000000000000000000000 DUP2 MSTORE PUSH1 0x4 ADD PUSH2 0x41C SWAP1 PUSH2 0x138C JUMP JUMPDEST PUSH1 0x40 MLOAD DUP1 SWAP2 SUB SWAP1 REVERT JUMPDEST PUSH1 0x0 PUSH1 0x1 PUSH1 0x0 DUP5 DUP2 MSTORE PUSH1 0x20 ADD SWAP1 DUP2 MSTORE PUSH1 0x20 ADD PUSH1 0x0 KECCAK256 SWAP1 POP DUP1 PUSH1 0x5 ADD PUSH1 0x0 SWAP1 SLOAD SWAP1 PUSH2 0x100 EXP SWAP1 DIV PUSH1 0xFF AND PUSH2 0x48D JUMPI PUSH1 0x40 MLOAD PUSH32 0x8C379A000000000000000000000000000000000000000000000000000000000 DUP2 MSTORE PUSH1 0x4 ADD PUSH2 0x484 SWAP1 PUSH2 0x13F8 JUMP JUMPDEST PUSH1 0x40 MLOAD DUP1 SWAP2 SUB SWAP1 REVERT JUMPDEST PUSH1 0x0 DUP3 GT PUSH2 0x4D0 JUMPI PUSH1 0x40 MLOAD PUSH32 0x8C379A000000000000000000000000000000000000000000000000000000000 DUP2 MSTORE PUSH1 0x4 ADD PUSH2 0x4C7 SWAP1 PUSH2 0x148A JUMP JUMPDEST PUSH1 0x40 MLOAD DUP1 SWAP2 SUB SWAP1 REVERT JUMPDEST DUP1 PUSH1 0x2 ADD SLOAD DUP3 DUP3 PUSH1 0x3 ADD SLOAD PUSH2 0x4E5 SWAP2 SWAP1 PUSH2 0x14D9 JUMP JUMPDEST GT ISZERO PUSH2 0x526 JUMPI PUSH1 0x40 MLOAD PUSH32 0x8C379A000000000000000000000000000000000000000000000000000000000 DUP2 MSTORE PUSH1 0x4 ADD PUSH2 0x51D SWAP1 PUSH2 0x157F JUMP JUMPDEST PUSH1 0x40 MLOAD DUP1 SWAP2 SUB SWAP1 REVERT JUMPDEST DUP2 DUP2 PUSH1 0x3 ADD PUSH1 0x0 DUP3 DUP3 SLOAD PUSH2 0x53A SWAP2 SWAP1 PUSH2 0x14D9 JUMP JUMPDEST SWAP3 POP POP DUP2 SWAP1 SSTORE POP DUP2 DUP2 PUSH1 0x4 ADD PUSH1 0x0 DUP3 DUP3 SLOAD PUSH2 0x555 SWAP2 SWAP1 PUSH2 0x14D9 JUMP JUMPDEST SWAP3 POP POP DUP2 SWAP1 SSTORE POP PUSH1 0x2 PUSH1 0x0 DUP5 DUP2 MSTORE PUSH1 0x20 ADD SWAP1 DUP2 MSTORE PUSH1 0x20 ADD PUSH1 0x0 KECCAK256 PUSH1 0x40 MLOAD DUP1 PUSH1 0x60 ADD PUSH1 0x40 MSTORE DUP1 CALLER PUSH20 0xFFFFFFFFFFFFFFFFFFFFFFFFFFFFFFFFFFFFFFFF AND DUP2 MSTORE PUSH1 0x20 ADD DUP5 DUP2 MSTORE PUSH1 0x20 ADD TIMESTAMP DUP2 MSTORE POP SWAP1 DUP1 PUSH1 0x1 DUP2 SLOAD ADD DUP1 DUP3 SSTORE DUP1 SWAP2 POP POP PUSH1 0x1 SWAP1 SUB SWAP1 PUSH1 0x0 MSTORE PUSH1 0x20 PUSH1 0x0 KECCAK256 SWAP1 PUSH1 0x3 MUL ADD PUSH1 0x0 SWAP1 SWAP2 SWAP1 SWAP2 SWAP1 SWAP2 POP PUSH1 0x0 DUP3 ADD MLOAD DUP2 PUSH1 0x0 ADD PUSH1 0x0 PUSH2 0x100 EXP DUP2 SLOAD DUP2 PUSH20 0xFFFFFFFFFFFFFFFFFFFFFFFFFFFFFFFFFFFFFFFF MUL NOT AND SWAP1 DUP4 PUSH20 0xFFFFFFFFFFFFFFFFFFFFFFFFFFFFFFFFFFFFFFFF AND MUL OR SWAP1 SSTORE POP PUSH1 0x20 DUP3 ADD MLOAD DUP2 PUSH1 0x1 ADD SSTORE PUSH1 0x40 DUP3 ADD MLOAD DUP2 PUSH1 0x2 ADD SSTORE POP POP CALLER PUSH20 0xFFFFFFFFFFFFFFFFFFFFFFFFFFFFFFFFFFFFFFFF AND DUP4 PUSH32 0xB5B4C52969FF7329ECF7EE536409FDA87812B15A8622BC6E8CDEAB3AEE14A26 DUP5 PUSH1 0x40 MLOAD PUSH2 0x66D SWAP2 SWAP1 PUSH2 0xF83 JUMP JUMPDEST PUSH1 0x40 MLOAD DUP1 SWAP2 SUB SWAP1 LOG3 POP POP POP JUMP JUMPDEST DUP2 PUSH1 0x1 PUSH1 0x0 DUP3 DUP2 MSTORE PUSH1 0x20 ADD SWAP1 DUP2 MSTORE PUSH1 0x20 ADD PUSH1 0x0 KECCAK256 PUSH1 0x1 ADD PUSH1 0x0 SWAP1 SLOAD SWAP1 PUSH2 0x100 EXP SWAP1 DIV PUSH20 0xFFFFFFFFFFFFFFFFFFFFFFFFFFFFFFFFFFFFFFFF AND PUSH20 0xFFFFFFFFFFFFFFFFFFFFFFFFFFFFFFFFFFFFFFFF AND CALLER PUSH20 0xFFFFFFFFFFFFFFFFFFFFFFFFFFFFFFFFFFFFFFFF AND EQ PUSH2 0x71F JUMPI PUSH1 0x40 MLOAD PUSH32 0x8C379A000000000000000000000000000000000000000000000000000000000 DUP2 MSTORE PUSH1 0x4 ADD PUSH2 0x716 SWAP1 PUSH2 0x1611 JUMP JUMPDEST PUSH1 0x40 MLOAD DUP1 SWAP2 SUB SWAP1 REVERT JUMPDEST PUSH1 0x0 DUP4 GT DUP1 ISZERO PUSH2 0x746 JUMPI POP PUSH1 0x0 PUSH1 0x1 PUSH1 0x0 DUP6 DUP2 MSTORE PUSH1 0x20 ADD SWAP1 DUP2 MSTORE PUSH1 0x20 ADD PUSH1 0x0 KECCAK256 PUSH1 0x0 ADD SLOAD EQ ISZERO JUMPDEST PUSH2 0x785 JUMPI PUSH1 0x40 MLOAD PUSH32 0x8C379A000000000000000000000000000000000000000000000000000000000 DUP2 MSTORE PUSH1 0x4 ADD PUSH2 0x77C SWAP1 PUSH2 0x138C JUMP JUMPDEST PUSH1 0x40 MLOAD DUP1 SWAP2 SUB SWAP1 REVERT JUMPDEST PUSH1 0x0 PUSH1 0x1 PUSH1 0x0 DUP6 DUP2 MSTORE PUSH1 0x20 ADD SWAP1 DUP2 MSTORE PUSH1 0x20 ADD PUSH1 0x0 KECCAK256 SWAP1 POP PUSH1 0x0 DUP4 GT PUSH2 0x7DF JUMPI PUSH1 0x40 MLOAD PUSH32 0x8C379A000000000000000000000000000000000000000000000000000000000 DUP2 MSTORE PUSH1 0x4 ADD PUSH2 0x7D6 SWAP1 PUSH2 0x16A3 JUMP JUMPDEST PUSH1 0x40 MLOAD DUP1 SWAP2 SUB SWAP1 REVERT JUMPDEST DUP1 PUSH1 0x4 ADD SLOAD DUP4 GT ISZERO PUSH2 0x826 JUMPI PUSH1 0x40 MLOAD PUSH32 0x8C379A000000000000000000000000000000000000000000000000000000000 DUP2 MSTORE PUSH1 0x4 ADD PUSH2 0x81D SWAP1 PUSH2 0x170F JUMP JUMPDEST PUSH1 0x40 MLOAD DUP1 SWAP2 SUB SWAP1 REVERT JUMPDEST DUP3 DUP2 PUSH1 0x4 ADD PUSH1 0x0 DUP3 DUP3 SLOAD PUSH2 0x83A SWAP2 SWAP1 PUSH2 0x172F JUMP JUMPDEST SWAP3 POP POP DUP2 SWAP1 SSTORE POP PUSH1 0x0 DUP2 PUSH1 0x1 ADD PUSH1 0x0 SWAP1 SLOAD SWAP1 PUSH2 0x100 EXP SWAP1 DIV PUSH20 0xFFFFFFFFFFFFFFFFFFFFFFFFFFFFFFFFFFFFFFFF AND PUSH20 0xFFFFFFFFFFFFFFFFFFFFFFFFFFFFFFFFFFFFFFFF AND DUP5 PUSH1 0x40 MLOAD PUSH2 0x88B SWAP1 PUSH2 0x1794 JUMP JUMPDEST PUSH1 0x0 PUSH1 0x40 MLOAD DUP1 DUP4 SUB DUP2 DUP6 DUP8 GAS CALL SWAP3 POP POP POP RETURNDATASIZE DUP1 PUSH1 0x0 DUP2 EQ PUSH2 0x8C8 JUMPI PUSH1 0x40 MLOAD SWAP2 POP PUSH1 0x1F NOT PUSH1 0x3F RETURNDATASIZE ADD AND DUP3 ADD PUSH1 0x40 MSTORE RETURNDATASIZE DUP3 MSTORE RETURNDATASIZE PUSH1 0x0 PUSH1 0x20 DUP5 ADD RETURNDATACOPY PUSH2 0x8CD JUMP JUMPDEST PUSH1 0x60 SWAP2 POP JUMPDEST POP POP SWAP1 POP DUP1 PUSH2 0x911 JUMPI PUSH1 0x40 MLOAD PUSH32 0x8C379A000000000000000000000000000000000000000000000000000000000 DUP2 MSTORE PUSH1 0x4 ADD PUSH2 0x908 SWAP1 PUSH2 0x17F5 JUMP JUMPDEST PUSH1 0x40 MLOAD DUP1 SWAP2 SUB SWAP1 REVERT JUMPDEST DUP5 PUSH32 0xD66662C0DED9E58FD31D5E44944BCFD07FFC15E6927ECC1382E7941CB7BD24C4 DUP6 PUSH1 0x40 MLOAD PUSH2 0x941 SWAP2 SWAP1 PUSH2 0xF83 JUMP JUMPDEST PUSH1 0x40 MLOAD DUP1 SWAP2 SUB SWAP1 LOG2 POP POP POP POP POP JUMP JUMPDEST PUSH1 0x60 PUSH1 0x0 DUP1 SLOAD SWAP1 PUSH2 0x100 EXP SWAP1 DIV PUSH20 0xFFFFFFFFFFFFFFFFFFFFFFFFFFFFFFFFFFFFFFFF AND PUSH20 0xFFFFFFFFFFFFFFFFFFFFFFFFFFFFFFFFFFFFFFFF AND CALLER PUSH20 0xFFFFFFFFFFFFFFFFFFFFFFFFFFFFFFFFFFFFFFFF AND EQ PUSH2 0x9E0 JUMPI PUSH1 0x40 MLOAD PUSH32 0x8C379A000000000000000000000000000000000000000000000000000000000 DUP2 MSTORE PUSH1 0x4 ADD PUSH2 0x9D7 SWAP1 PUSH2 0x1887 JUMP JUMPDEST PUSH1 0x40 MLOAD DUP1 SWAP2 SUB SWAP1 REVERT JUMPDEST PUSH1 0x0 DUP3 GT DUP1 ISZERO PUSH2 0xA07 JUMPI POP PUSH1 0x0 PUSH1 0x1 PUSH1 0x0 DUP5 DUP2 MSTORE PUSH1 0x20 ADD SWAP1 DUP2 MSTORE PUSH1 0x20 ADD PUSH1 0x0 KECCAK256 PUSH1 0x0 ADD SLOAD EQ ISZERO JUMPDEST PUSH2 0xA46 JUMPI PUSH1 0x40 MLOAD PUSH32 0x8C379A000000000000000000000000000000000000000000000000000000000 DUP2 MSTORE PUSH1 0x4 ADD PUSH2 0xA3D SWAP1 PUSH2 0x138C JUMP JUMPDEST PUSH1 0x40 MLOAD DUP1 SWAP2 SUB SWAP1 REVERT JUMPDEST PUSH1 0x2 PUSH1 0x0 DUP4 DUP2 MSTORE PUSH1 0x20 ADD SWAP1 DUP2 MSTORE PUSH1 0x20 ADD PUSH1 0x0 KECCAK256 DUP1 SLOAD DUP1 PUSH1 0x20 MUL PUSH1 0x20 ADD PUSH1 0x40 MLOAD SWAP1 DUP2 ADD PUSH1 0x40 MSTORE DUP1 SWAP3 SWAP2 SWAP1 DUP2 DUP2 MSTORE PUSH1 0x20 ADD PUSH1 0x0 SWAP1 JUMPDEST DUP3 DUP3 LT ISZERO PUSH2 0xB15 JUMPI DUP4 DUP3 SWAP1 PUSH1 0x0 MSTORE PUSH1 0x20 PUSH1 0x0 KECCAK256 SWAP1 PUSH1 0x3 MUL ADD PUSH1 0x40 MLOAD DUP1 PUSH1 0x60 ADD PUSH1 0x40 MSTORE SWAP1 DUP2 PUSH1 0x0 DUP3 ADD PUSH1 0x0 SWAP1 SLOAD SWAP1 PUSH2 0x100 EXP SWAP1 DIV PUSH20 0xFFFFFFFFFFFFFFFFFFFFFFFFFFFFFFFFFFFFFFFF AND PUSH20 0xFFFFFFFFFFFFFFFFFFFFFFFFFFFFFFFFFFFFFFFF AND PUSH20 0xFFFFFFFFFFFFFFFFFFFFFFFFFFFFFFFFFFFFFFFF AND DUP2 MSTORE PUSH1 0x20 ADD PUSH1 0x1 DUP3 ADD SLOAD DUP2 MSTORE PUSH1 0x20 ADD PUSH1 0x2 DUP3 ADD SLOAD DUP2 MSTORE POP POP DUP2 MSTORE PUSH1 0x20 ADD SWAP1 PUSH1 0x1 ADD SWAP1 PUSH2 0xA79 JUMP JUMPDEST POP POP POP POP SWAP1 POP SWAP2 SWAP1 POP JUMP JUMPDEST PUSH1 0x2 PUSH1 0x20 MSTORE DUP2 PUSH1 0x0 MSTORE PUSH1 0x40 PUSH1 0x0 KECCAK256 DUP2 DUP2 SLOAD DUP2 LT PUSH2 0xB3C JUMPI PUSH1 0x0 DUP1 REVERT JUMPDEST SWAP1 PUSH1 0x0 MSTORE PUSH1 0x20 PUSH1 0x0 KECCAK256 SWAP1 PUSH1 0x3 MUL ADD PUSH1 0x0 SWAP2 POP SWAP2 POP POP DUP1 PUSH1 0x0 ADD PUSH1 0x0 SWAP1 SLOAD SWAP1 PUSH2 0x100 EXP SWAP1 DIV PUSH20 0xFFFFFFFFFFFFFFFFFFFFFFFFFFFFFFFFFFFFFFFF AND SWAP1 DUP1 PUSH1 0x1 ADD SLOAD SWAP1 DUP1 PUSH1 0x2 ADD SLOAD SWAP1 POP DUP4 JUMP JUMPDEST PUSH1 0x1 PUSH1 0x20 MSTORE DUP1 PUSH1 0x0 MSTORE PUSH1 0x40 PUSH1 0x0 KECCAK256 PUSH1 0x0 SWAP2 POP SWAP1 POP DUP1 PUSH1 0x0 ADD SLOAD SWAP1 DUP1 PUSH1 0x1 ADD PUSH1 0x0 SWAP1 SLOAD SWAP1 PUSH2 0x100 EXP SWAP1 DIV PUSH20 0xFFFFFFFFFFFFFFFFFFFFFFFFFFFFFFFFFFFFFFFF AND SWAP1 DUP1 PUSH1 0x2 ADD SLOAD SWAP1 DUP1 PUSH1 0x3 ADD SLOAD SWAP1 DUP1 PUSH1 0x4 ADD SLOAD SWAP1 DUP1 PUSH1 0x5 ADD PUSH1 0x0 SWAP1 SLOAD SWAP1 PUSH2 0x100 EXP SWAP1 DIV PUSH1 0xFF AND SWAP1 POP DUP7 JUMP JUMPDEST PUSH1 0x3 SLOAD DUP2 JUMP JUMPDEST PUSH1 0x0 DUP1 SLOAD SWAP1 PUSH2 0x100 EXP SWAP1 DIV PUSH20 0xFFFFFFFFFFFFFFFFFFFFFFFFFFFFFFFFFFFFFFFF AND DUP2 JUMP JUMPDEST PUSH1 0x0 DUP1 SLOAD SWAP1 PUSH2 0x100 EXP SWAP1 DIV PUSH20 0xFFFFFFFFFFFFFFFFFFFFFFFFFFFFFFFFFFFFFFFF AND PUSH20 0xFFFFFFFFFFFFFFFFFFFFFFFFFFFFFFFFFFFFFFFF AND CALLER PUSH20 0xFFFFFFFFFFFFFFFFFFFFFFFFFFFFFFFFFFFFFFFF AND EQ PUSH2 0xCA8 JUMPI PUSH1 0x40 MLOAD PUSH32 0x8C379A000000000000000000000000000000000000000000000000000000000 DUP2 MSTORE PUSH1 0x4 ADD PUSH2 0xC9F SWAP1 PUSH2 0x1887 JUMP JUMPDEST PUSH1 0x40 MLOAD DUP1 SWAP2 SUB SWAP1 REVERT JUMPDEST PUSH1 0x0 PUSH20 0xFFFFFFFFFFFFFFFFFFFFFFFFFFFFFFFFFFFFFFFF AND DUP3 PUSH20 0xFFFFFFFFFFFFFFFFFFFFFFFFFFFFFFFFFFFFFFFF AND SUB PUSH2 0xD17 JUMPI PUSH1 0x40 MLOAD PUSH32 0x8C379A000000000000000000000000000000000000000000000000000000000 DUP2 MSTORE PUSH1 0x4 ADD PUSH2 0xD0E SWAP1 PUSH2 0x18F3 JUMP JUMPDEST PUSH1 0x40 MLOAD DUP1 SWAP2 SUB SWAP1 REVERT JUMPDEST PUSH1 0x0 DUP2 GT PUSH2 0xD5A JUMPI PUSH1 0x40 MLOAD PUSH32 0x8C379A000000000000000000000000000000000000000000000000000000000 DUP2 MSTORE PUSH1 0x4 ADD PUSH2 0xD51 SWAP1 PUSH2 0x1985 JUMP JUMPDEST PUSH1 0x40 MLOAD DUP1 SWAP2 SUB SWAP1 REVERT JUMPDEST PUSH1 0x0 PUSH1 0x1 PUSH1 0x0 DUP6 DUP2 MSTORE PUSH1 0x20 ADD SWAP1 DUP2 MSTORE PUSH1 0x20 ADD PUSH1 0x0 KECCAK256 PUSH1 0x0 ADD SLOAD EQ PUSH2 0xDB3 JUMPI PUSH1 0x40 MLOAD PUSH32 0x8C379A000000000000000000000000000000000000000000000000000000000 DUP2 MSTORE PUSH1 0x4 ADD PUSH2 0xDAA SWAP1 PUSH2 0x19F1 JUMP JUMPDEST PUSH1 0x40 MLOAD DUP1 SWAP2 SUB SWAP1 REVERT JUMPDEST PUSH1 0x3 PUSH1 0x0 DUP2 SLOAD DUP1 SWAP3 SWAP2 SWAP1 PUSH2 0xDC6 SWAP1 PUSH2 0x1A11 JUMP JUMPDEST SWAP2 SWAP1 POP SSTORE POP PUSH1 0x40 MLOAD DUP1 PUSH1 0xC0 ADD PUSH1 0x40 MSTORE DUP1 DUP5 DUP2 MSTORE PUSH1 0x20 ADD DUP4 PUSH20 0xFFFFFFFFFFFFFFFFFFFFFFFFFFFFFFFFFFFFFFFF AND DUP2 MSTORE PUSH1 0x20 ADD DUP3 DUP2 MSTORE PUSH1 0x20 ADD PUSH1 0x0 DUP2 MSTORE PUSH1 0x20 ADD PUSH1 0x0 DUP2 MSTORE PUSH1 0x20 ADD PUSH1 0x1 ISZERO ISZERO DUP2 MSTORE POP PUSH1 0x1 PUSH1 0x0 DUP6 DUP2 MSTORE PUSH1 0x20 ADD SWAP1 DUP2 MSTORE PUSH1 0x20 ADD PUSH1 0x0 KECCAK256 PUSH1 0x0 DUP3 ADD MLOAD DUP2 PUSH1 0x0 ADD SSTORE PUSH1 0x20 DUP3 ADD MLOAD DUP2 PUSH1 0x1 ADD PUSH1 0x0 PUSH2 0x100 EXP DUP2 SLOAD DUP2 PUSH20 0xFFFFFFFFFFFFFFFFFFFFFFFFFFFFFFFFFFFFFFFF MUL NOT AND SWAP1 DUP4 PUSH20 0xFFFFFFFFFFFFFFFFFFFFFFFFFFFFFFFFFFFFFFFF AND MUL OR SWAP1 SSTORE POP PUSH1 0x40 DUP3 ADD MLOAD DUP2 PUSH1 0x2 ADD SSTORE PUSH1 0x60 DUP3 ADD MLOAD DUP2 PUSH1 0x3 ADD SSTORE PUSH1 0x80 DUP3 ADD MLOAD DUP2 PUSH1 0x4 ADD SSTORE PUSH1 0xA0 DUP3 ADD MLOAD DUP2 PUSH1 0x5 ADD PUSH1 0x0 PUSH2 0x100 EXP DUP2 SLOAD DUP2 PUSH1 0xFF MUL NOT AND SWAP1 DUP4 ISZERO ISZERO MUL OR SWAP1 SSTORE POP SWAP1 POP POP DUP2 PUSH20 0xFFFFFFFFFFFFFFFFFFFFFFFFFFFFFFFFFFFFFFFF AND DUP4 PUSH32 0x23CFBA9A727E6DB64DA9EF036AA94852B70708EEA64C7FE06F7DFD629404FC4F DUP4 PUSH1 0x40 MLOAD PUSH2 0xEFF SWAP2 SWAP1 PUSH2 0xF83 JUMP JUMPDEST PUSH1 0x40 MLOAD DUP1 SWAP2 SUB SWAP1 LOG3 POP POP POP JUMP JUMPDEST PUSH1 0x0 DUP1 REVERT JUMPDEST PUSH1 0x0 DUP2 SWAP1 POP SWAP2 SWAP1 POP JUMP JUMPDEST PUSH2 0xF24 DUP2 PUSH2 0xF11 JUMP JUMPDEST DUP2 EQ PUSH2 0xF2F JUMPI PUSH1 0x0 DUP1 REVERT JUMPDEST POP JUMP JUMPDEST PUSH1 0x0 DUP2 CALLDATALOAD SWAP1 POP PUSH2 0xF41 DUP2 PUSH2 0xF1B JUMP JUMPDEST SWAP3 SWAP2 POP POP JUMP JUMPDEST PUSH1 0x0 PUSH1 0x20 DUP3 DUP5 SUB SLT ISZERO PUSH2 0xF5D JUMPI PUSH2 0xF5C PUSH2 0xF0C JUMP JUMPDEST JUMPDEST PUSH1 0x0 PUSH2 0xF6B DUP5 DUP3 DUP6 ADD PUSH2 0xF32 JUMP JUMPDEST SWAP2 POP POP SWAP3 SWAP2 POP POP JUMP JUMPDEST PUSH2 0xF7D DUP2 PUSH2 0xF11 JUMP JUMPDEST DUP3 MSTORE POP POP JUMP JUMPDEST PUSH1 0x0 PUSH1 0x20 DUP3 ADD SWAP1 POP PUSH2 0xF98 PUSH1 0x0 DUP4 ADD DUP5 PUSH2 0xF74 JUMP JUMPDEST SWAP3 SWAP2 POP POP JUMP JUMPDEST PUSH1 0x0 DUP1 PUSH1 0x40 DUP4 DUP6 SUB SLT ISZERO PUSH2 0xFB5 JUMPI PUSH2 0xFB4 PUSH2 0xF0C JUMP JUMPDEST JUMPDEST PUSH1 0x0 PUSH2 0xFC3 DUP6 DUP3 DUP7 ADD PUSH2 0xF32 JUMP JUMPDEST SWAP3 POP POP PUSH1 0x20 PUSH2 0xFD4 DUP6 DUP3 DUP7 ADD PUSH2 0xF32 JUMP JUMPDEST SWAP2 POP POP SWAP3 POP SWAP3 SWAP1 POP JUMP JUMPDEST PUSH1 0x0 DUP2 MLOAD SWAP1 POP SWAP2 SWAP1 POP JUMP JUMPDEST PUSH1 0x0 DUP3 DUP3 MSTORE PUSH1 0x20 DUP3 ADD SWAP1 POP SWAP3 SWAP2 POP POP JUMP JUMPDEST PUSH1 0x0 DUP2 SWAP1 POP PUSH1 0x20 DUP3 ADD SWAP1 POP SWAP2 SWAP1 POP JUMP JUMPDEST PUSH1 0x0 PUSH20 0xFFFFFFFFFFFFFFFFFFFFFFFFFFFFFFFFFFFFFFFF DUP3 AND SWAP1 POP SWAP2 SWAP1 POP JUMP JUMPDEST PUSH1 0x0 PUSH2 0x1035 DUP3 PUSH2 0x100A JUMP JUMPDEST SWAP1 POP SWAP2 SWAP1 POP JUMP JUMPDEST PUSH2 0x1045 DUP2 PUSH2 0x102A JUMP JUMPDEST DUP3 MSTORE POP POP JUMP JUMPDEST PUSH2 0x1054 DUP2 PUSH2 0xF11 JUMP JUMPDEST DUP3 MSTORE POP POP JUMP JUMPDEST PUSH1 0x60 DUP3 ADD PUSH1 0x0 DUP3 ADD MLOAD PUSH2 0x1070 PUSH1 0x0 DUP6 ADD DUP3 PUSH2 0x103C JUMP JUMPDEST POP PUSH1 0x20 DUP3 ADD MLOAD PUSH2 0x1083 PUSH1 0x20 DUP6 ADD DUP3 PUSH2 0x104B JUMP JUMPDEST POP PUSH1 0x40 DUP3 ADD MLOAD PUSH2 0x1096 PUSH1 0x40 DUP6 ADD DUP3 PUSH2 0x104B JUMP JUMPDEST POP POP POP POP JUMP JUMPDEST PUSH1 0x0 PUSH2 0x10A8 DUP4 DUP4 PUSH2 0x105A JUMP JUMPDEST PUSH1 0x60 DUP4 ADD SWAP1 POP SWAP3 SWAP2 POP POP JUMP JUMPDEST PUSH1 0x0 PUSH1 0x20 DUP3 ADD SWAP1 POP SWAP2 SWAP1 POP JUMP JUMPDEST PUSH1 0x0 PUSH2 0x10CC DUP3 PUSH2 0xFDE JUMP JUMPDEST PUSH2 0x10D6 DUP2 DUP6 PUSH2 0xFE9 JUMP JUMPDEST SWAP4 POP PUSH2 0x10E1 DUP4 PUSH2 0xFFA JUMP JUMPDEST DUP1 PUSH1 0x0 JUMPDEST DUP4 DUP2 LT ISZERO PUSH2 0x1112 JUMPI DUP2 MLOAD PUSH2 0x10F9 DUP9 DUP3 PUSH2 0x109C JUMP JUMPDEST SWAP8 POP PUSH2 0x1104 DUP4 PUSH2 0x10B4 JUMP JUMPDEST SWAP3 POP POP PUSH1 0x1 DUP2 ADD SWAP1 POP PUSH2 0x10E5 JUMP JUMPDEST POP DUP6 SWAP4 POP POP POP POP SWAP3 SWAP2 POP POP JUMP JUMPDEST PUSH1 0x0 PUSH1 0x20 DUP3 ADD SWAP1 POP DUP2 DUP2 SUB PUSH1 0x0 DUP4 ADD MSTORE PUSH2 0x1139 DUP2 DUP5 PUSH2 0x10C1 JUMP JUMPDEST SWAP1 POP SWAP3 SWAP2 POP POP JUMP JUMPDEST PUSH2 0x114A DUP2 PUSH2 0x102A JUMP JUMPDEST DUP3 MSTORE POP POP JUMP JUMPDEST PUSH1 0x0 PUSH1 0x60 DUP3 ADD SWAP1 POP PUSH2 0x1165 PUSH1 0x0 DUP4 ADD DUP7 PUSH2 0x1141 JUMP JUMPDEST PUSH2 0x1172 PUSH1 0x20 DUP4 ADD DUP6 PUSH2 0xF74 JUMP JUMPDEST PUSH2 0x117F PUSH1 0x40 DUP4 ADD DUP5 PUSH2 0xF74 JUMP JUMPDEST SWAP5 SWAP4 POP POP POP POP JUMP JUMPDEST PUSH1 0x0 DUP2 ISZERO ISZERO SWAP1 POP SWAP2 SWAP1 POP JUMP JUMPDEST PUSH2 0x119C DUP2 PUSH2 0x1187 JUMP JUMPDEST DUP3 MSTORE POP POP JUMP JUMPDEST PUSH1 0x0 PUSH1 0xC0 DUP3 ADD SWAP1 POP PUSH2 0x11B7 PUSH1 0x0 DUP4 ADD DUP10 PUSH2 0xF74 JUMP JUMPDEST PUSH2 0x11C4 PUSH1 0x20 DUP4 ADD DUP9 PUSH2 0x1141 JUMP JUMPDEST PUSH2 0x11D1 PUSH1 0x40 DUP4 ADD DUP8 PUSH2 0xF74 JUMP JUMPDEST PUSH2 0x11DE PUSH1 0x60 DUP4 ADD DUP7 PUSH2 0xF74 JUMP JUMPDEST PUSH2 0x11EB PUSH1 0x80 DUP4 ADD DUP6 PUSH2 0xF74 JUMP JUMPDEST PUSH2 0x11F8 PUSH1 0xA0 DUP4 ADD DUP5 PUSH2 0x1193 JUMP JUMPDEST SWAP8 SWAP7 POP POP POP POP POP POP POP JUMP JUMPDEST PUSH1 0x0 PUSH1 0x20 DUP3 ADD SWAP1 POP PUSH2 0x1218 PUSH1 0x0 DUP4 ADD DUP5 PUSH2 0x1141 JUMP JUMPDEST SWAP3 SWAP2 POP POP JUMP JUMPDEST PUSH2 0x1227 DUP2 PUSH2 0x102A JUMP JUMPDEST DUP2 EQ PUSH2 0x1232 JUMPI PUSH1 0x0 DUP1 REVERT JUMPDEST POP JUMP JUMPDEST PUSH1 0x0 DUP2 CALLDATALOAD SWAP1 POP PUSH2 0x1244 DUP2 PUSH2 0x121E JUMP JUMPDEST SWAP3 SWAP2 POP POP JUMP JUMPDEST PUSH1 0x0 DUP1 PUSH1 0x0 PUSH1 0x60 DUP5 DUP7 SUB SLT ISZERO PUSH2 0x1263 JUMPI PUSH2 0x1262 PUSH2 0xF0C JUMP JUMPDEST JUMPDEST PUSH1 0x0 PUSH2 0x1271 DUP7 DUP3 DUP8 ADD PUSH2 0xF32 JUMP JUMPDEST SWAP4 POP POP PUSH1 0x20 PUSH2 0x1282 DUP7 DUP3 DUP8 ADD PUSH2 0x1235 JUMP JUMPDEST SWAP3 POP POP PUSH1 0x40 PUSH2 0x1293 DUP7 DUP3 DUP8 ADD PUSH2 0xF32 JUMP JUMPDEST SWAP2 POP POP SWAP3 POP SWAP3 POP SWAP3 JUMP JUMPDEST PUSH1 0x0 DUP3 DUP3 MSTORE PUSH1 0x20 DUP3 ADD SWAP1 POP SWAP3 SWAP2 POP POP JUMP JUMPDEST PUSH32 0x4F6E6C79207468652061646D696E206F72207468652061737369676E65642072 PUSH1 0x0 DUP3 ADD MSTORE PUSH32 0x656365697665722063616E20706572666F726D207468697320616374696F6E2E PUSH1 0x20 DUP3 ADD MSTORE POP JUMP JUMPDEST PUSH1 0x0 PUSH2 0x130A PUSH1 0x40 DUP4 PUSH2 0x129D JUMP JUMPDEST SWAP2 POP PUSH2 0x1315 DUP3 PUSH2 0x12AE JUMP JUMPDEST PUSH1 0x40 DUP3 ADD SWAP1 POP SWAP2 SWAP1 POP JUMP JUMPDEST PUSH1 0x0 PUSH1 0x20 DUP3 ADD SWAP1 POP DUP2 DUP2 SUB PUSH1 0x0 DUP4 ADD MSTORE PUSH2 0x1339 DUP2 PUSH2 0x12FD JUMP JUMPDEST SWAP1 POP SWAP2 SWAP1 POP JUMP JUMPDEST PUSH32 0x496E76616C696420636861726974792049442E00000000000000000000000000 PUSH1 0x0 DUP3 ADD MSTORE POP JUMP JUMPDEST PUSH1 0x0 PUSH2 0x1376 PUSH1 0x13 DUP4 PUSH2 0x129D JUMP JUMPDEST SWAP2 POP PUSH2 0x1381 DUP3 PUSH2 0x1340 JUMP JUMPDEST PUSH1 0x20 DUP3 ADD SWAP1 POP SWAP2 SWAP1 POP JUMP JUMPDEST PUSH1 0x0 PUSH1 0x20 DUP3 ADD SWAP1 POP DUP2 DUP2 SUB PUSH1 0x0 DUP4 ADD MSTORE PUSH2 0x13A5 DUP2 PUSH2 0x1369 JUMP JUMPDEST SWAP1 POP SWAP2 SWAP1 POP JUMP JUMPDEST PUSH32 0x436861726974792072657175657374206973206E6F74206163746976652E0000 PUSH1 0x0 DUP3 ADD MSTORE POP JUMP JUMPDEST PUSH1 0x0 PUSH2 0x13E2 PUSH1 0x1E DUP4 PUSH2 0x129D JUMP JUMPDEST SWAP2 POP PUSH2 0x13ED DUP3 PUSH2 0x13AC JUMP JUMPDEST PUSH1 0x20 DUP3 ADD SWAP1 POP SWAP2 SWAP1 POP JUMP JUMPDEST PUSH1 0x0 PUSH1 0x20 DUP3 ADD SWAP1 POP DUP2 DUP2 SUB PUSH1 0x0 DUP4 ADD MSTORE PUSH2 0x1411 DUP2 PUSH2 0x13D5 JUMP JUMPDEST SWAP1 POP SWAP2 SWAP1 POP JUMP JUMPDEST PUSH32 0x446F6E6174696F6E20616D6F756E74206D757374206265206772656174657220 PUSH1 0x0 DUP3 ADD MSTORE PUSH32 0x7468616E207A65726F2E00000000000000000000000000000000000000000000 PUSH1 0x20 DUP3 ADD MSTORE POP JUMP JUMPDEST PUSH1 0x0 PUSH2 0x1474 PUSH1 0x2A DUP4 PUSH2 0x129D JUMP JUMPDEST SWAP2 POP PUSH2 0x147F DUP3 PUSH2 0x1418 JUMP JUMPDEST PUSH1 0x40 DUP3 ADD SWAP1 POP SWAP2 SWAP1 POP JUMP JUMPDEST PUSH1 0x0 PUSH1 0x20 DUP3 ADD SWAP1 POP DUP2 DUP2 SUB PUSH1 0x0 DUP4 ADD MSTORE PUSH2 0x14A3 DUP2 PUSH2 0x1467 JUMP JUMPDEST SWAP1 POP SWAP2 SWAP1 POP JUMP JUMPDEST PUSH32 0x4E487B7100000000000000000000000000000000000000000000000000000000 PUSH1 0x0 MSTORE PUSH1 0x11 PUSH1 0x4 MSTORE PUSH1 0x24 PUSH1 0x0 REVERT JUMPDEST PUSH1 0x0 PUSH2 0x14E4 DUP3 PUSH2 0xF11 JUMP JUMPDEST SWAP2 POP PUSH2 0x14EF DUP4 PUSH2 0xF11 JUMP JUMPDEST SWAP3 POP DUP3 DUP3 ADD SWAP1 POP DUP1 DUP3 GT ISZERO PUSH2 0x1507 JUMPI PUSH2 0x1506 PUSH2 0x14AA JUMP JUMPDEST JUMPDEST SWAP3 SWAP2 POP POP JUMP JUMPDEST PUSH32 0x446F6E6174696F6E206578636565647320726571756972656420616D6F756E74 PUSH1 0x0 DUP3 ADD MSTORE PUSH32 0x2E00000000000000000000000000000000000000000000000000000000000000 PUSH1 0x20 DUP3 ADD MSTORE POP JUMP JUMPDEST PUSH1 0x0 PUSH2 0x1569 PUSH1 0x21 DUP4 PUSH2 0x129D JUMP JUMPDEST SWAP2 POP PUSH2 0x1574 DUP3 PUSH2 0x150D JUMP JUMPDEST PUSH1 0x40 DUP3 ADD SWAP1 POP SWAP2 SWAP1 POP JUMP JUMPDEST PUSH1 0x0 PUSH1 0x20 DUP3 ADD SWAP1 POP DUP2 DUP2 SUB PUSH1 0x0 DUP4 ADD MSTORE PUSH2 0x1598 DUP2 PUSH2 0x155C JUMP JUMPDEST SWAP1 POP SWAP2 SWAP1 POP JUMP JUMPDEST PUSH32 0x4F6E6C79207468652061737369676E65642072656365697665722063616E2070 PUSH1 0x0 DUP3 ADD MSTORE PUSH32 0x6572666F726D207468697320616374696F6E2E00000000000000000000000000 PUSH1 0x20 DUP3 ADD MSTORE POP JUMP JUMPDEST PUSH1 0x0 PUSH2 0x15FB PUSH1 0x33 DUP4 PUSH2 0x129D JUMP JUMPDEST SWAP2 POP PUSH2 0x1606 DUP3 PUSH2 0x159F JUMP JUMPDEST PUSH1 0x40 DUP3 ADD SWAP1 POP SWAP2 SWAP1 POP JUMP JUMPDEST PUSH1 0x0 PUSH1 0x20 DUP3 ADD SWAP1 POP DUP2 DUP2 SUB PUSH1 0x0 DUP4 ADD MSTORE PUSH2 0x162A DUP2 PUSH2 0x15EE JUMP JUMPDEST SWAP1 POP SWAP2 SWAP1 POP JUMP JUMPDEST PUSH32 0x5769746864726177616C20616D6F756E74206D75737420626520677265617465 PUSH1 0x0 DUP3 ADD MSTORE PUSH32 0x72207468616E207A65726F2E0000000000000000000000000000000000000000 PUSH1 0x20 DUP3 ADD MSTORE POP JUMP JUMPDEST PUSH1 0x0 PUSH2 0x168D PUSH1 0x2C DUP4 PUSH2 0x129D JUMP JUMPDEST SWAP2 POP PUSH2 0x1698 DUP3 PUSH2 0x1631 JUMP JUMPDEST PUSH1 0x40 DUP3 ADD SWAP1 POP SWAP2 SWAP1 POP JUMP JUMPDEST PUSH1 0x0 PUSH1 0x20 DUP3 ADD SWAP1 POP DUP2 DUP2 SUB PUSH1 0x0 DUP4 ADD MSTORE PUSH2 0x16BC DUP2 PUSH2 0x1680 JUMP JUMPDEST SWAP1 POP SWAP2 SWAP1 POP JUMP JUMPDEST PUSH32 0x496E73756666696369656E742062616C616E63652E0000000000000000000000 PUSH1 0x0 DUP3 ADD MSTORE POP JUMP JUMPDEST PUSH1 0x0 PUSH2 0x16F9 PUSH1 0x15 DUP4 PUSH2 0x129D JUMP JUMPDEST SWAP2 POP PUSH2 0x1704 DUP3 PUSH2 0x16C3 JUMP JUMPDEST PUSH1 0x20 DUP3 ADD SWAP1 POP SWAP2 SWAP1 POP JUMP JUMPDEST PUSH1 0x0 PUSH1 0x20 DUP3 ADD SWAP1 POP DUP2 DUP2 SUB PUSH1 0x0 DUP4 ADD MSTORE PUSH2 0x1728 DUP2 PUSH2 0x16EC JUMP JUMPDEST SWAP1 POP SWAP2 SWAP1 POP JUMP JUMPDEST PUSH1 0x0 PUSH2 0x173A DUP3 PUSH2 0xF11 JUMP JUMPDEST SWAP2 POP PUSH2 0x1745 DUP4 PUSH2 0xF11 JUMP JUMPDEST SWAP3 POP DUP3 DUP3 SUB SWAP1 POP DUP2 DUP2 GT ISZERO PUSH2 0x175D JUMPI PUSH2 0x175C PUSH2 0x14AA JUMP JUMPDEST JUMPDEST SWAP3 SWAP2 POP POP JUMP JUMPDEST PUSH1 0x0 DUP2 SWAP1 POP SWAP3 SWAP2 POP POP JUMP JUMPDEST POP JUMP JUMPDEST PUSH1 0x0 PUSH2 0x177E PUSH1 0x0 DUP4 PUSH2 0x1763 JUMP JUMPDEST SWAP2 POP PUSH2 0x1789 DUP3 PUSH2 0x176E JUMP JUMPDEST PUSH1 0x0 DUP3 ADD SWAP1 POP SWAP2 SWAP1 POP JUMP JUMPDEST PUSH1 0x0 PUSH2 0x179F DUP3 PUSH2 0x1771 JUMP JUMPDEST SWAP2 POP DUP2 SWAP1 POP SWAP2 SWAP1 POP JUMP JUMPDEST PUSH32 0x5769746864726177616C206661696C65642E0000000000000000000000000000 PUSH1 0x0 DUP3 ADD MSTORE POP JUMP JUMPDEST PUSH1 0x0 PUSH2 0x17DF PUSH1 0x12 DUP4 PUSH2 0x129D JUMP JUMPDEST SWAP2 POP PUSH2 0x17EA DUP3 PUSH2 0x17A9 JUMP JUMPDEST PUSH1 0x20 DUP3 ADD SWAP1 POP SWAP2 SWAP1 POP JUMP JUMPDEST PUSH1 0x0 PUSH1 0x20 DUP3 ADD SWAP1 POP DUP2 DUP2 SUB PUSH1 0x0 DUP4 ADD MSTORE PUSH2 0x180E DUP2 PUSH2 0x17D2 JUMP JUMPDEST SWAP1 POP SWAP2 SWAP1 POP JUMP JUMPDEST PUSH32 0x4F6E6C79207468652061646D696E2063616E20706572666F726D207468697320 PUSH1 0x0 DUP3 ADD MSTORE PUSH32 0x616374696F6E2E00000000000000000000000000000000000000000000000000 PUSH1 0x20 DUP3 ADD MSTORE POP JUMP JUMPDEST PUSH1 0x0 PUSH2 0x1871 PUSH1 0x27 DUP4 PUSH2 0x129D JUMP JUMPDEST SWAP2 POP PUSH2 0x187C DUP3 PUSH2 0x1815 JUMP JUMPDEST PUSH1 0x40 DUP3 ADD SWAP1 POP SWAP2 SWAP1 POP JUMP JUMPDEST PUSH1 0x0 PUSH1 0x20 DUP3 ADD SWAP1 POP DUP2 DUP2 SUB PUSH1 0x0 DUP4 ADD MSTORE PUSH2 0x18A0 DUP2 PUSH2 0x1864 JUMP JUMPDEST SWAP1 POP SWAP2 SWAP1 POP JUMP JUMPDEST PUSH32 0x526563656976657220616464726573732063616E6E6F74206265207A65726F2E PUSH1 0x0 DUP3 ADD MSTORE POP JUMP JUMPDEST PUSH1 0x0 PUSH2 0x18DD PUSH1 0x20 DUP4 PUSH2 0x129D JUMP JUMPDEST SWAP2 POP PUSH2 0x18E8 DUP3 PUSH2 0x18A7 JUMP JUMPDEST PUSH1 0x20 DUP3 ADD SWAP1 POP SWAP2 SWAP1 POP JUMP JUMPDEST PUSH1 0x0 PUSH1 0x20 DUP3 ADD SWAP1 POP DUP2 DUP2 SUB PUSH1 0x0 DUP4 ADD MSTORE PUSH2 0x190C DUP2 PUSH2 0x18D0 JUMP JUMPDEST SWAP1 POP SWAP2 SWAP1 POP JUMP JUMPDEST PUSH32 0x4D6178696D756D20616D6F756E74206D75737420626520677265617465722074 PUSH1 0x0 DUP3 ADD MSTORE PUSH32 0x68616E207A65726F2E0000000000000000000000000000000000000000000000 PUSH1 0x20 DUP3 ADD MSTORE POP JUMP JUMPDEST PUSH1 0x0 PUSH2 0x196F PUSH1 0x29 DUP4 PUSH2 0x129D JUMP JUMPDEST SWAP2 POP PUSH2 0x197A DUP3 PUSH2 0x1913 JUMP JUMPDEST PUSH1 0x40 DUP3 ADD SWAP1 POP SWAP2 SWAP1 POP JUMP JUMPDEST PUSH1 0x0 PUSH1 0x20 DUP3 ADD SWAP1 POP DUP2 DUP2 SUB PUSH1 0x0 DUP4 ADD MSTORE PUSH2 0x199E DUP2 PUSH2 0x1962 JUMP JUMPDEST SWAP1 POP SWAP2 SWAP1 POP JUMP JUMPDEST PUSH32 0x4368617269747920494420616C7265616479206578697374732E000000000000 PUSH1 0x0 DUP3 ADD MSTORE POP JUMP JUMPDEST PUSH1 0x0 PUSH2 0x19DB PUSH1 0x1A DUP4 PUSH2 0x129D JUMP JUMPDEST SWAP2 POP PUSH2 0x19E6 DUP3 PUSH2 0x19A5 JUMP JUMPDEST PUSH1 0x20 DUP3 ADD SWAP1 POP SWAP2 SWAP1 POP JUMP JUMPDEST PUSH1 0x0 PUSH1 0x20 DUP3 ADD SWAP1 POP DUP2 DUP2 SUB PUSH1 0x0 DUP4 ADD MSTORE PUSH2 0x1A0A DUP2 PUSH2 0x19CE JUMP JUMPDEST SWAP1 POP SWAP2 SWAP1 POP JUMP JUMPDEST PUSH1 0x0 PUSH2 0x1A1C DUP3 PUSH2 0xF11 JUMP JUMPDEST SWAP2 POP PUSH32 0xFFFFFFFFFFFFFFFFFFFFFFFFFFFFFFFFFFFFFFFFFFFFFFFFFFFFFFFFFFFFFFFF DUP3 SUB PUSH2 0x1A4E JUMPI PUSH2 0x1A4D PUSH2 0x14AA JUMP JUMPDEST JUMPDEST PUSH1 0x1 DUP3 ADD SWAP1 POP SWAP2 SWAP1 POP JUMP INVALID LOG2 PUSH5 0x6970667358 0x22 SLT KECCAK256 0xB9 JUMP PUSH1 0x58 0xE4 AND PUSH26 0xA52BE843461C98A9DC7805163D7E2D1CAFDE60F38B736A4E0464 PUSH20 0x6F6C634300081A00330000000000000000000000 "
        },
        "methodIdentifiers": {
          "admin()": "f851a440",
          "charityCount()": "91329493",
          "charityDonations(uint256,uint256)": "5cbbb574",
          "charityRequests(uint256)": "5effffa9",
          "createCharityRequest(uint256,address,uint256)": "ffded55d",
          "donate(uint256,uint256)": "0cdd53f6",
          "getContractBalance(uint256)": "05d63070",
          "getDonations(uint256)": "596d9ce2",
          "withdraw(uint256,uint256)": "441a3e70"
        }
      }
    }
  }
}