{
  "_format": "hh-sol-artifact-1",
  "contractName": "CharityDonationApp",
  "sourceName": "contracts/charity.sol",
  "abi": [
    {
      "inputs": [],
      "stateMutability": "nonpayable",
      "type": "constructor"
    },
    {
      "anonymous": false,
      "inputs": [
        {
          "indexed": true,
          "internalType": "uint256",
          "name": "charityId",
          "type": "uint256"
        },
        {
          "indexed": true,
          "internalType": "address",
          "name": "donor",
          "type": "address"
        },
        {
          "indexed": false,
          "internalType": "uint256",
          "name": "amount",
          "type": "uint256"
        }
      ],
      "name": "DonationReceived",
      "type": "event"
    },
    {
      "anonymous": false,
      "inputs": [
        {
          "indexed": true,
          "internalType": "uint256",
          "name": "charityId",
          "type": "uint256"
        },
        {
          "indexed": false,
          "internalType": "uint256",
          "name": "amount",
          "type": "uint256"
        }
      ],
      "name": "FundsWithdrawn",
      "type": "event"
    },
    {
      "inputs": [],
      "name": "admin",
      "outputs": [
        {
          "internalType": "address",
          "name": "",
          "type": "address"
        }
      ],
      "stateMutability": "view",
      "type": "function"
    },
    {
      "inputs": [],
      "name": "charityCount",
      "outputs": [
        {
          "internalType": "uint256",
          "name": "",
          "type": "uint256"
        }
      ],
      "stateMutability": "view",
      "type": "function"
    },
    {
      "inputs": [
        {
          "internalType": "uint256",
          "name": "",
          "type": "uint256"
        }
      ],
      "name": "charityRequests",
      "outputs": [
        {
          "internalType": "uint256",
          "name": "maxAmount",
          "type": "uint256"
        },
        {
          "internalType": "uint256",
          "name": "collected",
          "type": "uint256"
        },
        {
          "internalType": "uint256",
          "name": "balance",
          "type": "uint256"
        },
        {
          "internalType": "bool",
          "name": "status",
          "type": "bool"
        }
      ],
      "stateMutability": "view",
      "type": "function"
    },
    {
      "inputs": [
        {
          "internalType": "uint256",
          "name": "_maxAmount",
          "type": "uint256"
        }
      ],
      "name": "createCharityRequest",
      "outputs": [],
      "stateMutability": "nonpayable",
      "type": "function"
    },
    {
      "inputs": [
        {
          "internalType": "uint256",
          "name": "_charityId",
          "type": "uint256"
        }
      ],
      "name": "donate",
      "outputs": [],
      "stateMutability": "payable",
      "type": "function"
    },
    {
      "inputs": [],
      "name": "getContractBalance",
      "outputs": [
        {
          "internalType": "uint256",
          "name": "",
          "type": "uint256"
        }
      ],
      "stateMutability": "view",
      "type": "function"
    },
    {
      "inputs": [
        {
          "internalType": "uint256",
          "name": "_charityId",
          "type": "uint256"
        },
        {
          "internalType": "uint256",
          "name": "_amount",
          "type": "uint256"
        }
      ],
      "name": "withdraw",
      "outputs": [],
      "stateMutability": "nonpayable",
      "type": "function"
    }
  ],
  "bytecode": "0x6080604052348015600f57600080fd5b50336000806101000a81548173ffffffffffffffffffffffffffffffffffffffff021916908373ffffffffffffffffffffffffffffffffffffffff160217905550610baf8061005f6000396000f3fe6080604052600436106100705760003560e01c80636f9fb98a1161004e5780636f9fb98a146101075780639132949314610132578063f14faf6f1461015d578063f851a4401461017957610070565b80634413fd5614610075578063441a3e701461009e5780635effffa9146100c7575b600080fd5b34801561008157600080fd5b5061009c600480360381019061009791906106a8565b6101a4565b005b3480156100aa57600080fd5b506100c560048036038101906100c091906106d5565b6102c9565b005b3480156100d357600080fd5b506100ee60048036038101906100e991906106a8565b610474565b6040516100fe949392919061073f565b60405180910390f35b34801561011357600080fd5b5061011c6104b1565b6040516101299190610784565b60405180910390f35b34801561013e57600080fd5b506101476104b9565b6040516101549190610784565b60405180910390f35b610177600480360381019061017291906106a8565b6104bf565b005b34801561018557600080fd5b5061018e610649565b60405161019b91906107e0565b60405180910390f35b60008054906101000a900473ffffffffffffffffffffffffffffffffffffffff1673ffffffffffffffffffffffffffffffffffffffff163373ffffffffffffffffffffffffffffffffffffffff1614610232576040517f08c379a00000000000000000000000000000000000000000000000000000000081526004016102299061087e565b60405180910390fd5b60026000815480929190610245906108cd565b9190505550604051806080016040528082815260200160008152602001600081526020016001151581525060016000600254815260200190815260200160002060008201518160000155602082015181600101556040820151816002015560608201518160030160006101000a81548160ff02191690831515021790555090505050565b60008054906101000a900473ffffffffffffffffffffffffffffffffffffffff1673ffffffffffffffffffffffffffffffffffffffff163373ffffffffffffffffffffffffffffffffffffffff1614610357576040517f08c379a000000000000000000000000000000000000000000000000000000000815260040161034e9061087e565b60405180910390fd5b600060016000848152602001908152602001600020905080600201548211156103b5576040517f08c379a00000000000000000000000000000000000000000000000000000000081526004016103ac90610961565b60405180910390fd5b818160020160008282546103c99190610981565b9250508190555060008054906101000a900473ffffffffffffffffffffffffffffffffffffffff1673ffffffffffffffffffffffffffffffffffffffff166108fc839081150290604051600060405180830381858888f19350505050158015610436573d6000803e3d6000fd5b50827fd66662c0ded9e58fd31d5e44944bcfd07ffc15e6927ecc1382e7941cb7bd24c4836040516104679190610784565b60405180910390a2505050565b60016020528060005260406000206000915090508060000154908060010154908060020154908060030160009054906101000a900460ff16905084565b600047905090565b60025481565b60006001600083815260200190815260200160002090508060030160009054906101000a900460ff16610527576040517f08c379a000000000000000000000000000000000000000000000000000000000815260040161051e90610a01565b60405180910390fd5b6000341161056a576040517f08c379a000000000000000000000000000000000000000000000000000000000815260040161056190610a93565b60405180910390fd5b806000015434826001015461057f9190610ab3565b11156105c0576040517f08c379a00000000000000000000000000000000000000000000000000000000081526004016105b790610b59565b60405180910390fd5b348160010160008282546105d49190610ab3565b92505081905550348160020160008282546105ef9190610ab3565b925050819055503373ffffffffffffffffffffffffffffffffffffffff16827f0b5b4c52969ff7329ecf7ee536409fda87812b15a8622bc6e8cdeab3aee14a263460405161063d9190610784565b60405180910390a35050565b60008054906101000a900473ffffffffffffffffffffffffffffffffffffffff1681565b600080fd5b6000819050919050565b61068581610672565b811461069057600080fd5b50565b6000813590506106a28161067c565b92915050565b6000602082840312156106be576106bd61066d565b5b60006106cc84828501610693565b91505092915050565b600080604083850312156106ec576106eb61066d565b5b60006106fa85828601610693565b925050602061070b85828601610693565b9150509250929050565b61071e81610672565b82525050565b60008115159050919050565b61073981610724565b82525050565b60006080820190506107546000830187610715565b6107616020830186610715565b61076e6040830185610715565b61077b6060830184610730565b95945050505050565b60006020820190506107996000830184610715565b92915050565b600073ffffffffffffffffffffffffffffffffffffffff82169050919050565b60006107ca8261079f565b9050919050565b6107da816107bf565b82525050565b60006020820190506107f560008301846107d1565b92915050565b600082825260208201905092915050565b7f4f6e6c79207468652061646d696e2063616e20706572666f726d20746869732060008201527f616374696f6e2e00000000000000000000000000000000000000000000000000602082015250565b60006108686027836107fb565b91506108738261080c565b604082019050919050565b600060208201905081810360008301526108978161085b565b9050919050565b7f4e487b7100000000000000000000000000000000000000000000000000000000600052601160045260246000fd5b60006108d882610672565b91507fffffffffffffffffffffffffffffffffffffffffffffffffffffffffffffffff820361090a5761090961089e565b5b600182019050919050565b7f496e73756666696369656e742062616c616e63652e0000000000000000000000600082015250565b600061094b6015836107fb565b915061095682610915565b602082019050919050565b6000602082019050818103600083015261097a8161093e565b9050919050565b600061098c82610672565b915061099783610672565b92508282039050818111156109af576109ae61089e565b5b92915050565b7f436861726974792072657175657374206973206e6f74206163746976652e0000600082015250565b60006109eb601e836107fb565b91506109f6826109b5565b602082019050919050565b60006020820190508181036000830152610a1a816109de565b9050919050565b7f446f6e6174696f6e206d7573742062652067726561746572207468616e207a6560008201527f726f2e0000000000000000000000000000000000000000000000000000000000602082015250565b6000610a7d6023836107fb565b9150610a8882610a21565b604082019050919050565b60006020820190508181036000830152610aac81610a70565b9050919050565b6000610abe82610672565b9150610ac983610672565b9250828201905080821115610ae157610ae061089e565b5b92915050565b7f446f6e6174696f6e206578636565647320726571756972656420616d6f756e7460008201527f2e00000000000000000000000000000000000000000000000000000000000000602082015250565b6000610b436021836107fb565b9150610b4e82610ae7565b604082019050919050565b60006020820190508181036000830152610b7281610b36565b905091905056fea2646970667358221220c1f17369bacc8884f529fdfda28e3ad360605f9a30662728ca30d578cf7f3b0264736f6c634300081a0033",
  "linkReferences": {},
  "deployedLinkReferences": {}
}